{
  "_format": "hh-sol-artifact-1",
  "contractName": "VotingSystem",
  "sourceName": "contracts/VotingSystem.sol",
  "abi": [
    {
      "inputs": [
        {
          "internalType": "uint256",
          "name": "electionId",
          "type": "uint256"
        },
        {
          "internalType": "string",
          "name": "name",
          "type": "string"
        }
      ],
      "name": "addCandidate",
      "outputs": [],
      "stateMutability": "nonpayable",
      "type": "function"
    },
    {
      "inputs": [
        {
          "internalType": "string",
          "name": "name",
          "type": "string"
        },
        {
          "internalType": "uint256",
          "name": "startTime",
          "type": "uint256"
        },
        {
          "internalType": "uint256",
          "name": "endTime",
          "type": "uint256"
        }
      ],
      "name": "createElection",
      "outputs": [],
      "stateMutability": "nonpayable",
      "type": "function"
    },
    {
      "inputs": [
        {
          "internalType": "uint256",
          "name": "electionId",
          "type": "uint256"
        },
        {
          "internalType": "string",
          "name": "candidateName",
          "type": "string"
        }
      ],
      "name": "getCandidate",
      "outputs": [
        {
          "internalType": "string",
          "name": "name",
          "type": "string"
        },
        {
          "internalType": "uint256",
          "name": "voteCount",
          "type": "uint256"
        }
      ],
      "stateMutability": "view",
      "type": "function"
    },
    {
      "inputs": [
        {
          "internalType": "uint256",
          "name": "electionId",
          "type": "uint256"
        }
      ],
      "name": "getElection",
      "outputs": [
        {
          "internalType": "string",
          "name": "name",
          "type": "string"
        },
        {
          "internalType": "uint256",
          "name": "startTime",
          "type": "uint256"
        },
        {
          "internalType": "uint256",
          "name": "endTime",
          "type": "uint256"
        }
      ],
      "stateMutability": "view",
      "type": "function"
    },
    {
      "inputs": [
        {
          "internalType": "uint256",
          "name": "electionId",
          "type": "uint256"
        }
      ],
      "name": "getElectionResults",
      "outputs": [
        {
          "internalType": "string[]",
          "name": "candidateNames",
          "type": "string[]"
        },
        {
          "internalType": "uint256[]",
          "name": "voteCounts",
          "type": "uint256[]"
        }
      ],
      "stateMutability": "view",
      "type": "function"
    },
    {
      "inputs": [
        {
          "internalType": "uint256",
          "name": "electionId",
          "type": "uint256"
        },
        {
          "internalType": "string",
          "name": "candidateName",
          "type": "string"
        }
      ],
      "name": "vote",
      "outputs": [],
      "stateMutability": "nonpayable",
      "type": "function"
    }
  ],
  "bytecode": "0x608060405234801561001057600080fd5b5061159d806100206000396000f3fe608060405234801561001057600080fd5b50600436106100625760003560e01c80630d448ca9146100675780631750a3d01461009857806324108475146100b45780639d710777146100d0578063e8ededa614610102578063f49a7a1714610133575b600080fd5b610081600480360381019061007c9190610a5b565b61014f565b60405161008f929190610b45565b60405180910390f35b6100b260048036038101906100ad9190610a5b565b61022e565b005b6100ce60048036038101906100c99190610a5b565b61031f565b005b6100ea60048036038101906100e59190610b75565b6104ee565b6040516100f993929190610ba2565b60405180910390f35b61011c60048036038101906101179190610b75565b6105b1565b60405161012a929190610daa565b60405180910390f35b61014d60048036038101906101489190610de1565b6107ed565b005b606060008060008086815260200190815260200160002090506000816004018560405161017c9190610e8c565b908152602001604051809103902090508060000181600101548180546101a190610ed2565b80601f01602080910402602001604051908101604052809291908181526020018280546101cd90610ed2565b801561021a5780601f106101ef5761010080835404028352916020019161021a565b820191906000526020600020905b8154815290600101906020018083116101fd57829003601f168201915b505050505091509350935050509250929050565b600080600084815260200190815260200160002090504281600101541161028a576040517f08c379a000000000000000000000000000000000000000000000000000000000815260040161028190610f4f565b60405180910390fd5b6040518060400160405280838152602001600081525081600401836040516102b29190610e8c565b908152602001604051809103902060008201518160000190816102d5919061111b565b50602082015181600101559050508060050182908060018154018082558091505060019003906000526020600020016000909190919091509081610319919061111b565b50505050565b600080600084815260200190815260200160002090504281600101541061037b576040517f08c379a000000000000000000000000000000000000000000000000000000000815260040161037290611239565b60405180910390fd5b428160020154116103c1576040517f08c379a00000000000000000000000000000000000000000000000000000000081526004016103b8906112a5565b60405180910390fd5b8060030160003373ffffffffffffffffffffffffffffffffffffffff1673ffffffffffffffffffffffffffffffffffffffff16815260200190815260200160002060000160149054906101000a900460ff1615610453576040517f08c379a000000000000000000000000000000000000000000000000000000000815260040161044a90611311565b60405180910390fd5b60018160030160003373ffffffffffffffffffffffffffffffffffffffff1673ffffffffffffffffffffffffffffffffffffffff16815260200190815260200160002060000160146101000a81548160ff02191690831515021790555080600401826040516104c29190610e8c565b908152602001604051809103902060010160008154809291906104e490611360565b9190505550505050565b606060008060008060008681526020019081526020016000209050806000018160010154826002015482805461052390610ed2565b80601f016020809104026020016040519081016040528092919081815260200182805461054f90610ed2565b801561059c5780601f106105715761010080835404028352916020019161059c565b820191906000526020600020905b81548152906001019060200180831161057f57829003601f168201915b50505050509250935093509350509193909250565b6060806000806000858152602001908152602001600020905042816002015410610610576040517f08c379a0000000000000000000000000000000000000000000000000000000008152600401610607906113f4565b60405180910390fd5b6000816005018054905090508067ffffffffffffffff81111561063657610635610930565b5b60405190808252806020026020018201604052801561066957816020015b60608152602001906001900390816106545790505b5093508067ffffffffffffffff81111561068657610685610930565b5b6040519080825280602002602001820160405280156106b45781602001602082028036833780820191505090505b50925060005b818110156107e55760008360050182815481106106da576106d9611414565b5b9060005260206000200180546106ef90610ed2565b80601f016020809104026020016040519081016040528092919081815260200182805461071b90610ed2565b80156107685780601f1061073d57610100808354040283529160200191610768565b820191906000526020600020905b81548152906001019060200180831161074b57829003601f168201915b505050505090508086838151811061078357610782611414565b5b602002602001018190525083600401816040516107a09190610e8c565b9081526020016040518091039020600101548583815181106107c5576107c4611414565b5b6020026020010181815250505080806107dd90611360565b9150506106ba565b505050915091565b42821161082f576040517f08c379a0000000000000000000000000000000000000000000000000000000008152600401610826906114b5565b60405180910390fd5b818111610871576040517f08c379a000000000000000000000000000000000000000000000000000000000815260040161086890611547565b60405180910390fd5b6000806000600154815260200190815260200160002090508381600001908161089a919061111b565b50828160010181905550818160020181905550600160008154809291906108c090611360565b919050555050505050565b6000604051905090565b600080fd5b600080fd5b6000819050919050565b6108f2816108df565b81146108fd57600080fd5b50565b60008135905061090f816108e9565b92915050565b600080fd5b600080fd5b6000601f19601f8301169050919050565b7f4e487b7100000000000000000000000000000000000000000000000000000000600052604160045260246000fd5b6109688261091f565b810181811067ffffffffffffffff8211171561098757610986610930565b5b80604052505050565b600061099a6108cb565b90506109a6828261095f565b919050565b600067ffffffffffffffff8211156109c6576109c5610930565b5b6109cf8261091f565b9050602081019050919050565b82818337600083830152505050565b60006109fe6109f9846109ab565b610990565b905082815260208101848484011115610a1a57610a1961091a565b5b610a258482856109dc565b509392505050565b600082601f830112610a4257610a41610915565b5b8135610a528482602086016109eb565b91505092915050565b60008060408385031215610a7257610a716108d5565b5b6000610a8085828601610900565b925050602083013567ffffffffffffffff811115610aa157610aa06108da565b5b610aad85828601610a2d565b9150509250929050565b600081519050919050565b600082825260208201905092915050565b60005b83811015610af1578082015181840152602081019050610ad6565b60008484015250505050565b6000610b0882610ab7565b610b128185610ac2565b9350610b22818560208601610ad3565b610b2b8161091f565b840191505092915050565b610b3f816108df565b82525050565b60006040820190508181036000830152610b5f8185610afd565b9050610b6e6020830184610b36565b9392505050565b600060208284031215610b8b57610b8a6108d5565b5b6000610b9984828501610900565b91505092915050565b60006060820190508181036000830152610bbc8186610afd565b9050610bcb6020830185610b36565b610bd86040830184610b36565b949350505050565b600081519050919050565b600082825260208201905092915050565b6000819050602082019050919050565b600082825260208201905092915050565b6000610c2882610ab7565b610c328185610c0c565b9350610c42818560208601610ad3565b610c4b8161091f565b840191505092915050565b6000610c628383610c1d565b905092915050565b6000602082019050919050565b6000610c8282610be0565b610c8c8185610beb565b935083602082028501610c9e85610bfc565b8060005b85811015610cda5784840389528151610cbb8582610c56565b9450610cc683610c6a565b925060208a01995050600181019050610ca2565b50829750879550505050505092915050565b600081519050919050565b600082825260208201905092915050565b6000819050602082019050919050565b610d21816108df565b82525050565b6000610d338383610d18565b60208301905092915050565b6000602082019050919050565b6000610d5782610cec565b610d618185610cf7565b9350610d6c83610d08565b8060005b83811015610d9d578151610d848882610d27565b9750610d8f83610d3f565b925050600181019050610d70565b5085935050505092915050565b60006040820190508181036000830152610dc48185610c77565b90508181036020830152610dd88184610d4c565b90509392505050565b600080600060608486031215610dfa57610df96108d5565b5b600084013567ffffffffffffffff811115610e1857610e176108da565b5b610e2486828701610a2d565b9350506020610e3586828701610900565b9250506040610e4686828701610900565b9150509250925092565b600081905092915050565b6000610e6682610ab7565b610e708185610e50565b9350610e80818560208601610ad3565b80840191505092915050565b6000610e988284610e5b565b915081905092915050565b7f4e487b7100000000000000000000000000000000000000000000000000000000600052602260045260246000fd5b60006002820490506001821680610eea57607f821691505b602082108103610efd57610efc610ea3565b5b50919050565b7f456c656374696f6e2068617320616c7265616479207374617274656400000000600082015250565b6000610f39601c83610ac2565b9150610f4482610f03565b602082019050919050565b60006020820190508181036000830152610f6881610f2c565b9050919050565b60008190508160005260206000209050919050565b60006020601f8301049050919050565b600082821b905092915050565b600060088302610fd17fffffffffffffffffffffffffffffffffffffffffffffffffffffffffffffffff82610f94565b610fdb8683610f94565b95508019841693508086168417925050509392505050565b6000819050919050565b600061101861101361100e846108df565b610ff3565b6108df565b9050919050565b6000819050919050565b61103283610ffd565b61104661103e8261101f565b848454610fa1565b825550505050565b600090565b61105b61104e565b611066818484611029565b505050565b5b8181101561108a5761107f600082611053565b60018101905061106c565b5050565b601f8211156110cf576110a081610f6f565b6110a984610f84565b810160208510156110b8578190505b6110cc6110c485610f84565b83018261106b565b50505b505050565b600082821c905092915050565b60006110f2600019846008026110d4565b1980831691505092915050565b600061110b83836110e1565b9150826002028217905092915050565b61112482610ab7565b67ffffffffffffffff81111561113d5761113c610930565b5b6111478254610ed2565b61115282828561108e565b600060209050601f8311600181146111855760008415611173578287015190505b61117d85826110ff565b8655506111e5565b601f19841661119386610f6f565b60005b828110156111bb57848901518255600182019150602085019450602081019050611196565b868310156111d857848901516111d4601f8916826110e1565b8355505b6001600288020188555050505b505050505050565b7f456c656374696f6e20686173206e6f7420796574207374617274656400000000600082015250565b6000611223601c83610ac2565b915061122e826111ed565b602082019050919050565b6000602082019050818103600083015261125281611216565b9050919050565b7f456c656374696f6e2068617320616c726561647920656e646564000000000000600082015250565b600061128f601a83610ac2565b915061129a82611259565b602082019050919050565b600060208201905081810360008301526112be81611282565b9050919050565b7f566f7465722068617320616c726561647920766f746564000000000000000000600082015250565b60006112fb601783610ac2565b9150611306826112c5565b602082019050919050565b6000602082019050818103600083015261132a816112ee565b9050919050565b7f4e487b7100000000000000000000000000000000000000000000000000000000600052601160045260246000fd5b600061136b826108df565b91507fffffffffffffffffffffffffffffffffffffffffffffffffffffffffffffffff820361139d5761139c611331565b5b600182019050919050565b7f456c656374696f6e20686173206e6f742079657420656e646564000000000000600082015250565b60006113de601a83610ac2565b91506113e9826113a8565b602082019050919050565b6000602082019050818103600083015261140d816113d1565b9050919050565b7f4e487b7100000000000000000000000000000000000000000000000000000000600052603260045260246000fd5b7f456c656374696f6e2073746172742074696d65206d75737420626520696e207460008201527f6865206675747572650000000000000000000000000000000000000000000000602082015250565b600061149f602983610ac2565b91506114aa82611443565b604082019050919050565b600060208201905081810360008301526114ce81611492565b9050919050565b7f456c656374696f6e20656e642074696d65206d7573742062652061667465722060008201527f7468652073746172742074696d65000000000000000000000000000000000000602082015250565b6000611531602e83610ac2565b915061153c826114d5565b604082019050919050565b6000602082019050818103600083015261156081611524565b905091905056fea2646970667358221220e4ebe1e99ab9581c88267ce065c84ef2d226dab9bd095d972a74a5a77c00339864736f6c63430008130033",
  "linkReferences": {},
  "deployedLinkReferences": {}
}