{
  "abi": [
    {
      "inputs": [
        {
          "internalType": "uint256",
          "name": "electionId",
          "type": "uint256"
        },
        {
          "internalType": "string",
          "name": "name",
          "type": "string"
        }
      ],
      "name": "addCandidate",
      "outputs": [],
      "stateMutability": "nonpayable",
      "type": "function"
    },
    {
      "inputs": [
        {
          "internalType": "string",
          "name": "name",
          "type": "string"
        },
        {
          "internalType": "uint256",
          "name": "startTime",
          "type": "uint256"
        },
        {
          "internalType": "uint256",
          "name": "endTime",
          "type": "uint256"
        }
      ],
      "name": "createElection",
      "outputs": [],
      "stateMutability": "nonpayable",
      "type": "function"
    },
    {
      "inputs": [
        {
          "internalType": "uint256",
          "name": "electionId",
          "type": "uint256"
        },
        {
          "internalType": "string",
          "name": "candidateName",
          "type": "string"
        }
      ],
      "name": "getCandidate",
      "outputs": [
        {
          "internalType": "string",
          "name": "name",
          "type": "string"
        },
        {
          "internalType": "uint256",
          "name": "voteCount",
          "type": "uint256"
        }
      ],
      "stateMutability": "view",
      "type": "function"
    },
    {
      "inputs": [
        {
          "internalType": "uint256",
          "name": "electionId",
          "type": "uint256"
        }
      ],
      "name": "getElection",
      "outputs": [
        {
          "internalType": "string",
          "name": "name",
          "type": "string"
        },
        {
          "internalType": "uint256",
          "name": "startTime",
          "type": "uint256"
        },
        {
          "internalType": "uint256",
          "name": "endTime",
          "type": "uint256"
        }
      ],
      "stateMutability": "view",
      "type": "function"
    },
    {
      "inputs": [
        {
          "internalType": "uint256",
          "name": "electionId",
          "type": "uint256"
        }
      ],
      "name": "getElectionResults",
      "outputs": [
        {
          "internalType": "string[]",
          "name": "candidateNames",
          "type": "string[]"
        },
        {
          "internalType": "uint256[]",
          "name": "voteCounts",
          "type": "uint256[]"
        }
      ],
      "stateMutability": "view",
      "type": "function"
    },
    {
      "inputs": [
        {
          "internalType": "uint256",
          "name": "electionId",
          "type": "uint256"
        },
        {
          "internalType": "string",
          "name": "candidateName",
          "type": "string"
        }
      ],
      "name": "vote",
      "outputs": [],
      "stateMutability": "nonpayable",
      "type": "function"
    }
  ],
  "devdoc": {
    "kind": "dev",
    "methods": {},
    "version": 1
  },
  "evm": {
    "assembly": "    /* \"VotingSystem.sol\":60:3300  contract VotingSystem {... */\n  mstore(0x40, 0x80)\n  callvalue\n  dup1\n  iszero\n  tag_1\n  jumpi\n  0x00\n  dup1\n  revert\ntag_1:\n  pop\n  dataSize(sub_0)\n  dup1\n  dataOffset(sub_0)\n  0x00\n  codecopy\n  0x00\n  return\nstop\n\nsub_0: assembly {\n        /* \"VotingSystem.sol\":60:3300  contract VotingSystem {... */\n      mstore(0x40, 0x80)\n      callvalue\n      dup1\n      iszero\n      tag_1\n      jumpi\n      0x00\n      dup1\n      revert\n    tag_1:\n      pop\n      jumpi(tag_2, lt(calldatasize, 0x04))\n      shr(0xe0, calldataload(0x00))\n      dup1\n      0x9d710777\n      gt\n      tag_9\n      jumpi\n      dup1\n      0x9d710777\n      eq\n      tag_6\n      jumpi\n      dup1\n      0xe8ededa6\n      eq\n      tag_7\n      jumpi\n      dup1\n      0xf49a7a17\n      eq\n      tag_8\n      jumpi\n      0x00\n      dup1\n      revert\n    tag_9:\n      dup1\n      0x0d448ca9\n      eq\n      tag_3\n      jumpi\n      dup1\n      0x1750a3d0\n      eq\n      tag_4\n      jumpi\n      dup1\n      0x24108475\n      eq\n      tag_5\n      jumpi\n    tag_2:\n      0x00\n      dup1\n      revert\n        /* \"VotingSystem.sol\":2968:3297  function getCandidate(uint256 electionId, string memory candidateName) public view returns (string memory name, uint256 voteCount) {... */\n    tag_3:\n      tag_10\n      tag_11\n      calldatasize\n      0x04\n      tag_12\n      jump\t// in\n    tag_11:\n      tag_13\n      jump\t// in\n    tag_10:\n      mload(0x40)\n      tag_14\n      swap3\n      swap2\n      swap1\n      tag_15\n      jump\t// in\n    tag_14:\n      mload(0x40)\n      dup1\n      swap2\n      sub\n      swap1\n      return\n        /* \"VotingSystem.sol\":1103:1456  function addCandidate(uint256 electionId, string memory name) public {... */\n    tag_4:\n      tag_16\n      tag_17\n      calldatasize\n      0x04\n      tag_12\n      jump\t// in\n    tag_17:\n      tag_18\n      jump\t// in\n    tag_16:\n      stop\n        /* \"VotingSystem.sol\":1464:1971  function vote(uint256 electionId, string memory candidateName) public {... */\n    tag_5:\n      tag_16\n      tag_20\n      calldatasize\n      0x04\n      tag_12\n      jump\t// in\n    tag_20:\n      tag_21\n      jump\t// in\n        /* \"VotingSystem.sol\":2703:2960  function getElection(uint256 electionId) public view returns (string memory name, uint256 startTime, uint256 endTime) {... */\n    tag_6:\n      tag_22\n      tag_23\n      calldatasize\n      0x04\n      tag_24\n      jump\t// in\n    tag_23:\n      tag_25\n      jump\t// in\n    tag_22:\n      mload(0x40)\n      tag_14\n      swap4\n      swap3\n      swap2\n      swap1\n      tag_27\n      jump\t// in\n        /* \"VotingSystem.sol\":1979:2697  function getElectionResults(uint256 electionId) public view returns (string[] memory candidateNames, uint256[] memory voteCounts) {... */\n    tag_7:\n      tag_28\n      tag_29\n      calldatasize\n      0x04\n      tag_24\n      jump\t// in\n    tag_29:\n      tag_30\n      jump\t// in\n    tag_28:\n      mload(0x40)\n      tag_14\n      swap3\n      swap2\n      swap1\n      tag_32\n      jump\t// in\n        /* \"VotingSystem.sol\":603:1095  function createElection(string memory name, uint256 startTime, uint256 endTime) public {... */\n    tag_8:\n      tag_16\n      tag_34\n      calldatasize\n      0x04\n      tag_35\n      jump\t// in\n    tag_34:\n      tag_36\n      jump\t// in\n        /* \"VotingSystem.sol\":2968:3297  function getCandidate(uint256 electionId, string memory candidateName) public view returns (string memory name, uint256 voteCount) {... */\n    tag_13:\n        /* \"VotingSystem.sol\":3080:3097  uint256 voteCount */\n      0x00\n        /* \"VotingSystem.sol\":3138:3159  elections[electionId] */\n      dup3\n      dup2\n      mstore\n      0x20\n      dup2\n      swap1\n      mstore\n      0x40\n      dup1\n      dup3\n      keccak256\n        /* \"VotingSystem.sol\":3200:3234  election.candidates[candidateName] */\n      swap1\n      mload\n        /* \"VotingSystem.sol\":3060:3078  string memory name */\n      0x60\n      swap3\n        /* \"VotingSystem.sol\":3080:3097  uint256 voteCount */\n      swap2\n        /* \"VotingSystem.sol\":3138:3159  elections[electionId] */\n      swap1\n        /* \"VotingSystem.sol\":3080:3097  uint256 voteCount */\n      dup3\n      swap1\n        /* \"VotingSystem.sol\":3200:3219  election.candidates */\n      0x04\n      dup4\n      add\n      swap1\n        /* \"VotingSystem.sol\":3200:3234  election.candidates[candidateName] */\n      tag_38\n      swap1\n        /* \"VotingSystem.sol\":3220:3233  candidateName */\n      dup8\n      swap1\n        /* \"VotingSystem.sol\":3200:3234  election.candidates[candidateName] */\n      tag_39\n      jump\t// in\n    tag_38:\n      swap1\n      dup2\n      mstore\n      0x20\n      add\n      mload(0x40)\n      dup1\n      swap2\n      sub\n      swap1\n      keccak256\n        /* \"VotingSystem.sol\":3170:3234  Candidate storage candidate = election.candidates[candidateName] */\n      swap1\n      pop\n        /* \"VotingSystem.sol\":3253:3262  candidate */\n      dup1\n        /* \"VotingSystem.sol\":3253:3267  candidate.name */\n      0x00\n      add\n        /* \"VotingSystem.sol\":3269:3278  candidate */\n      dup2\n        /* \"VotingSystem.sol\":3269:3288  candidate.voteCount */\n      0x01\n      add\n      sload\n        /* \"VotingSystem.sol\":3245:3289  return (candidate.name, candidate.voteCount) */\n      dup2\n      dup1\n      sload\n      tag_40\n      swap1\n      tag_41\n      jump\t// in\n    tag_40:\n      dup1\n      0x1f\n      add\n      0x20\n      dup1\n      swap2\n      div\n      mul\n      0x20\n      add\n      mload(0x40)\n      swap1\n      dup2\n      add\n      0x40\n      mstore\n      dup1\n      swap3\n      swap2\n      swap1\n      dup2\n      dup2\n      mstore\n      0x20\n      add\n      dup3\n      dup1\n      sload\n      tag_42\n      swap1\n      tag_41\n      jump\t// in\n    tag_42:\n      dup1\n      iszero\n      tag_43\n      jumpi\n      dup1\n      0x1f\n      lt\n      tag_44\n      jumpi\n      0x0100\n      dup1\n      dup4\n      sload\n      div\n      mul\n      dup4\n      mstore\n      swap2\n      0x20\n      add\n      swap2\n      jump(tag_43)\n    tag_44:\n      dup3\n      add\n      swap2\n      swap1\n      0x00\n      mstore\n      keccak256(0x00, 0x20)\n      swap1\n    tag_45:\n      dup2\n      sload\n      dup2\n      mstore\n      swap1\n      0x01\n      add\n      swap1\n      0x20\n      add\n      dup1\n      dup4\n      gt\n      tag_45\n      jumpi\n      dup3\n      swap1\n      sub\n      0x1f\n      and\n      dup3\n      add\n      swap2\n    tag_43:\n      pop\n      pop\n      pop\n      pop\n      pop\n      swap2\n      pop\n      swap4\n      pop\n      swap4\n      pop\n      pop\n      pop\n        /* \"VotingSystem.sol\":2968:3297  function getCandidate(uint256 electionId, string memory candidateName) public view returns (string memory name, uint256 voteCount) {... */\n      swap3\n      pop\n      swap3\n      swap1\n      pop\n      jump\t// out\n        /* \"VotingSystem.sol\":1103:1456  function addCandidate(uint256 electionId, string memory name) public {... */\n    tag_18:\n        /* \"VotingSystem.sol\":1183:1208  Election storage election */\n      0x00\n        /* \"VotingSystem.sol\":1211:1232  elections[electionId] */\n      dup3\n      dup2\n      mstore\n      0x20\n      dup2\n      swap1\n      mstore\n      0x40\n      swap1\n      keccak256\n        /* \"VotingSystem.sol\":1251:1269  election.startTime */\n      0x01\n      dup2\n      add\n      sload\n        /* \"VotingSystem.sol\":1272:1287  block.timestamp */\n      timestamp\n      lt\n        /* \"VotingSystem.sol\":1243:1320  require(election.startTime > block.timestamp, \"Election has already started\") */\n      tag_47\n      jumpi\n      mload(0x40)\n      shl(0xe5, 0x461bcd)\n      dup2\n      mstore\n        /* \"#utility.yul\":5325:5327   */\n      0x20\n        /* \"VotingSystem.sol\":1243:1320  require(election.startTime > block.timestamp, \"Election has already started\") */\n      0x04\n      dup3\n      add\n        /* \"#utility.yul\":5307:5328   */\n      mstore\n        /* \"#utility.yul\":5364:5366   */\n      0x1c\n        /* \"#utility.yul\":5344:5362   */\n      0x24\n      dup3\n      add\n        /* \"#utility.yul\":5337:5367   */\n      mstore\n        /* \"#utility.yul\":5403:5433   */\n      0x456c656374696f6e2068617320616c7265616479207374617274656400000000\n        /* \"#utility.yul\":5383:5401   */\n      0x44\n      dup3\n      add\n        /* \"#utility.yul\":5376:5434   */\n      mstore\n        /* \"#utility.yul\":5451:5469   */\n      0x64\n      add\n        /* \"VotingSystem.sol\":1243:1320  require(election.startTime > block.timestamp, \"Election has already started\") */\n    tag_48:\n      mload(0x40)\n      dup1\n      swap2\n      sub\n      swap1\n      revert\n    tag_47:\n        /* \"VotingSystem.sol\":1361:1379  Candidate(name, 0) */\n      mload(0x40)\n      dup1\n      0x40\n      add\n      0x40\n      mstore\n      dup1\n        /* \"VotingSystem.sol\":1371:1375  name */\n      dup4\n        /* \"VotingSystem.sol\":1361:1379  Candidate(name, 0) */\n      dup2\n      mstore\n      0x20\n      add\n        /* \"VotingSystem.sol\":1377:1378  0 */\n      0x00\n        /* \"VotingSystem.sol\":1361:1379  Candidate(name, 0) */\n      dup2\n      mstore\n      pop\n        /* \"VotingSystem.sol\":1333:1341  election */\n      dup2\n        /* \"VotingSystem.sol\":1333:1352  election.candidates */\n      0x04\n      add\n        /* \"VotingSystem.sol\":1353:1357  name */\n      dup4\n        /* \"VotingSystem.sol\":1333:1358  election.candidates[name] */\n      mload(0x40)\n      tag_50\n      swap2\n      swap1\n      tag_39\n      jump\t// in\n    tag_50:\n      swap1\n      dup2\n      mstore\n      mload(0x40)\n      swap1\n      dup2\n      swap1\n      sub\n      0x20\n      add\n      swap1\n      keccak256\n        /* \"VotingSystem.sol\":1333:1379  election.candidates[name] = Candidate(name, 0) */\n      dup2\n      mload\n        /* \"VotingSystem.sol\":1333:1358  election.candidates[name] */\n      dup2\n      swap1\n        /* \"VotingSystem.sol\":1333:1379  election.candidates[name] = Candidate(name, 0) */\n      tag_51\n      swap1\n        /* \"VotingSystem.sol\":1333:1358  election.candidates[name] */\n      dup3\n        /* \"VotingSystem.sol\":1333:1379  election.candidates[name] = Candidate(name, 0) */\n      tag_52\n      jump\t// in\n    tag_51:\n      pop\n      0x20\n      swap2\n      dup3\n      add\n      mload\n      0x01\n      swap2\n      dup3\n      add\n      sstore\n        /* \"VotingSystem.sol\":1390:1413  election.candidateNames */\n      0x05\n      dup4\n      add\n        /* \"VotingSystem.sol\":1390:1424  election.candidateNames.push(name) */\n      dup1\n      sload\n      swap2\n      dup3\n      add\n      dup2\n      sstore\n      0x00\n      swap1\n      dup2\n      mstore\n      swap2\n      swap1\n      swap2\n      keccak256\n      add\n      tag_54\n        /* \"VotingSystem.sol\":1419:1423  name */\n      dup4\n        /* \"VotingSystem.sol\":1390:1424  election.candidateNames.push(name) */\n      dup3\n      tag_52\n      jump\t// in\n    tag_54:\n      pop\n        /* \"VotingSystem.sol\":1172:1456  {... */\n      pop\n        /* \"VotingSystem.sol\":1103:1456  function addCandidate(uint256 electionId, string memory name) public {... */\n      pop\n      pop\n      jump\t// out\n        /* \"VotingSystem.sol\":1464:1971  function vote(uint256 electionId, string memory candidateName) public {... */\n    tag_21:\n        /* \"VotingSystem.sol\":1545:1570  Election storage election */\n      0x00\n        /* \"VotingSystem.sol\":1573:1594  elections[electionId] */\n      dup3\n      dup2\n      mstore\n      0x20\n      dup2\n      swap1\n      mstore\n      0x40\n      swap1\n      keccak256\n        /* \"VotingSystem.sol\":1613:1631  election.startTime */\n      0x01\n      dup2\n      add\n      sload\n        /* \"VotingSystem.sol\":1634:1649  block.timestamp */\n      timestamp\n      gt\n        /* \"VotingSystem.sol\":1605:1682  require(election.startTime < block.timestamp, \"Election has not yet started\") */\n      tag_56\n      jumpi\n      mload(0x40)\n      shl(0xe5, 0x461bcd)\n      dup2\n      mstore\n        /* \"#utility.yul\":7886:7888   */\n      0x20\n        /* \"VotingSystem.sol\":1605:1682  require(election.startTime < block.timestamp, \"Election has not yet started\") */\n      0x04\n      dup3\n      add\n        /* \"#utility.yul\":7868:7889   */\n      mstore\n        /* \"#utility.yul\":7925:7927   */\n      0x1c\n        /* \"#utility.yul\":7905:7923   */\n      0x24\n      dup3\n      add\n        /* \"#utility.yul\":7898:7928   */\n      mstore\n        /* \"#utility.yul\":7964:7994   */\n      0x456c656374696f6e20686173206e6f7420796574207374617274656400000000\n        /* \"#utility.yul\":7944:7962   */\n      0x44\n      dup3\n      add\n        /* \"#utility.yul\":7937:7995   */\n      mstore\n        /* \"#utility.yul\":8012:8030   */\n      0x64\n      add\n        /* \"VotingSystem.sol\":1605:1682  require(election.startTime < block.timestamp, \"Election has not yet started\") */\n      tag_48\n        /* \"#utility.yul\":7684:8036   */\n      jump\n        /* \"VotingSystem.sol\":1605:1682  require(election.startTime < block.timestamp, \"Election has not yet started\") */\n    tag_56:\n        /* \"VotingSystem.sol\":1720:1735  block.timestamp */\n      timestamp\n        /* \"VotingSystem.sol\":1701:1709  election */\n      dup2\n        /* \"VotingSystem.sol\":1701:1717  election.endTime */\n      0x02\n      add\n      sload\n        /* \"VotingSystem.sol\":1701:1735  election.endTime > block.timestamp */\n      gt\n        /* \"VotingSystem.sol\":1693:1766  require(election.endTime > block.timestamp, \"Election has already ended\") */\n      tag_59\n      jumpi\n      mload(0x40)\n      shl(0xe5, 0x461bcd)\n      dup2\n      mstore\n        /* \"#utility.yul\":8243:8245   */\n      0x20\n        /* \"VotingSystem.sol\":1693:1766  require(election.endTime > block.timestamp, \"Election has already ended\") */\n      0x04\n      dup3\n      add\n        /* \"#utility.yul\":8225:8246   */\n      mstore\n        /* \"#utility.yul\":8282:8284   */\n      0x1a\n        /* \"#utility.yul\":8262:8280   */\n      0x24\n      dup3\n      add\n        /* \"#utility.yul\":8255:8285   */\n      mstore\n        /* \"#utility.yul\":8321:8349   */\n      0x456c656374696f6e2068617320616c726561647920656e646564000000000000\n        /* \"#utility.yul\":8301:8319   */\n      0x44\n      dup3\n      add\n        /* \"#utility.yul\":8294:8350   */\n      mstore\n        /* \"#utility.yul\":8367:8385   */\n      0x64\n      add\n        /* \"VotingSystem.sol\":1693:1766  require(election.endTime > block.timestamp, \"Election has already ended\") */\n      tag_48\n        /* \"#utility.yul\":8041:8391   */\n      jump\n        /* \"VotingSystem.sol\":1693:1766  require(election.endTime > block.timestamp, \"Election has already ended\") */\n    tag_59:\n        /* \"VotingSystem.sol\":1802:1812  msg.sender */\n      caller\n        /* \"VotingSystem.sol\":1786:1813  election.voters[msg.sender] */\n      0x00\n      swap1\n      dup2\n      mstore\n        /* \"VotingSystem.sol\":1786:1801  election.voters */\n      0x03\n      dup3\n      add\n        /* \"VotingSystem.sol\":1786:1813  election.voters[msg.sender] */\n      0x20\n      mstore\n      0x40\n      swap1\n      keccak256\n        /* \"VotingSystem.sol\":1786:1822  election.voters[msg.sender].hasVoted */\n      sload\n      shl(0xa0, 0x01)\n      swap1\n      div\n      0xff\n      and\n        /* \"VotingSystem.sol\":1785:1822  !election.voters[msg.sender].hasVoted */\n      iszero\n        /* \"VotingSystem.sol\":1777:1850  require(!election.voters[msg.sender].hasVoted, \"Voter has already voted\") */\n      tag_62\n      jumpi\n      mload(0x40)\n      shl(0xe5, 0x461bcd)\n      dup2\n      mstore\n        /* \"#utility.yul\":8598:8600   */\n      0x20\n        /* \"VotingSystem.sol\":1777:1850  require(!election.voters[msg.sender].hasVoted, \"Voter has already voted\") */\n      0x04\n      dup3\n      add\n        /* \"#utility.yul\":8580:8601   */\n      mstore\n        /* \"#utility.yul\":8637:8639   */\n      0x17\n        /* \"#utility.yul\":8617:8635   */\n      0x24\n      dup3\n      add\n        /* \"#utility.yul\":8610:8640   */\n      mstore\n        /* \"#utility.yul\":8676:8701   */\n      0x566f7465722068617320616c726561647920766f746564000000000000000000\n        /* \"#utility.yul\":8656:8674   */\n      0x44\n      dup3\n      add\n        /* \"#utility.yul\":8649:8702   */\n      mstore\n        /* \"#utility.yul\":8719:8737   */\n      0x64\n      add\n        /* \"VotingSystem.sol\":1777:1850  require(!election.voters[msg.sender].hasVoted, \"Voter has already voted\") */\n      tag_48\n        /* \"#utility.yul\":8396:8743   */\n      jump\n        /* \"VotingSystem.sol\":1777:1850  require(!election.voters[msg.sender].hasVoted, \"Voter has already voted\") */\n    tag_62:\n        /* \"VotingSystem.sol\":1879:1889  msg.sender */\n      caller\n        /* \"VotingSystem.sol\":1863:1890  election.voters[msg.sender] */\n      0x00\n      swap1\n      dup2\n      mstore\n        /* \"VotingSystem.sol\":1863:1878  election.voters */\n      0x03\n      dup3\n      add\n        /* \"VotingSystem.sol\":1863:1890  election.voters[msg.sender] */\n      0x20\n      mstore\n      0x40\n      swap1\n      dup2\n      swap1\n      keccak256\n        /* \"VotingSystem.sol\":1863:1906  election.voters[msg.sender].hasVoted = true */\n      dup1\n      sload\n      0xffffffffffffffffffffff00ffffffffffffffffffffffffffffffffffffffff\n      and\n      shl(0xa0, 0x01)\n      or\n      swap1\n      sstore\n        /* \"VotingSystem.sol\":1917:1951  election.candidates[candidateName] */\n      mload\n        /* \"VotingSystem.sol\":1917:1936  election.candidates */\n      0x04\n      dup3\n      add\n      swap1\n        /* \"VotingSystem.sol\":1917:1951  election.candidates[candidateName] */\n      tag_65\n      swap1\n        /* \"VotingSystem.sol\":1937:1950  candidateName */\n      dup5\n      swap1\n        /* \"VotingSystem.sol\":1917:1951  election.candidates[candidateName] */\n      tag_39\n      jump\t// in\n    tag_65:\n      swap1\n      dup2\n      mstore\n      mload(0x40)\n      swap1\n      dup2\n      swap1\n      sub\n      0x20\n      add\n      swap1\n      keccak256\n        /* \"VotingSystem.sol\":1917:1961  election.candidates[candidateName].voteCount */\n      0x01\n      add\n        /* \"VotingSystem.sol\":1917:1963  election.candidates[candidateName].voteCount++ */\n      dup1\n      sload\n      swap1\n        /* \"VotingSystem.sol\":1917:1961  election.candidates[candidateName].voteCount */\n      0x00\n        /* \"VotingSystem.sol\":1917:1963  election.candidates[candidateName].voteCount++ */\n      tag_66\n      dup4\n      tag_67\n      jump\t// in\n    tag_66:\n      swap2\n      swap1\n      pop\n      sstore\n      pop\n        /* \"VotingSystem.sol\":1534:1971  {... */\n      pop\n        /* \"VotingSystem.sol\":1464:1971  function vote(uint256 electionId, string memory candidateName) public {... */\n      pop\n      pop\n      jump\t// out\n        /* \"VotingSystem.sol\":2703:2960  function getElection(uint256 electionId) public view returns (string memory name, uint256 startTime, uint256 endTime) {... */\n    tag_25:\n        /* \"VotingSystem.sol\":2785:2802  uint256 startTime */\n      0x00\n        /* \"VotingSystem.sol\":2860:2881  elections[electionId] */\n      dup2\n      dup2\n      mstore\n      0x20\n      dup2\n      swap1\n      mstore\n      0x40\n      dup2\n      keccak256\n        /* \"VotingSystem.sol\":2915:2933  election.startTime */\n      0x01\n      dup2\n      add\n      sload\n        /* \"VotingSystem.sol\":2935:2951  election.endTime */\n      0x02\n      dup3\n      add\n      sload\n        /* \"VotingSystem.sol\":2892:2952  return (election.name, election.startTime, election.endTime) */\n      dup3\n      sload\n        /* \"VotingSystem.sol\":2765:2783  string memory name */\n      0x60\n      swap5\n        /* \"VotingSystem.sol\":2785:2802  uint256 startTime */\n      swap4\n      dup5\n      swap4\n        /* \"VotingSystem.sol\":2860:2881  elections[electionId] */\n      swap1\n      swap3\n      dup4\n      swap3\n      dup4\n      swap1\n        /* \"VotingSystem.sol\":2892:2952  return (election.name, election.startTime, election.endTime) */\n      tag_69\n      swap1\n      tag_41\n      jump\t// in\n    tag_69:\n      dup1\n      0x1f\n      add\n      0x20\n      dup1\n      swap2\n      div\n      mul\n      0x20\n      add\n      mload(0x40)\n      swap1\n      dup2\n      add\n      0x40\n      mstore\n      dup1\n      swap3\n      swap2\n      swap1\n      dup2\n      dup2\n      mstore\n      0x20\n      add\n      dup3\n      dup1\n      sload\n      tag_70\n      swap1\n      tag_41\n      jump\t// in\n    tag_70:\n      dup1\n      iszero\n      tag_71\n      jumpi\n      dup1\n      0x1f\n      lt\n      tag_72\n      jumpi\n      0x0100\n      dup1\n      dup4\n      sload\n      div\n      mul\n      dup4\n      mstore\n      swap2\n      0x20\n      add\n      swap2\n      jump(tag_71)\n    tag_72:\n      dup3\n      add\n      swap2\n      swap1\n      0x00\n      mstore\n      keccak256(0x00, 0x20)\n      swap1\n    tag_73:\n      dup2\n      sload\n      dup2\n      mstore\n      swap1\n      0x01\n      add\n      swap1\n      0x20\n      add\n      dup1\n      dup4\n      gt\n      tag_73\n      jumpi\n      dup3\n      swap1\n      sub\n      0x1f\n      and\n      dup3\n      add\n      swap2\n    tag_71:\n      pop\n      pop\n      pop\n      pop\n      pop\n      swap3\n      pop\n      swap4\n      pop\n      swap4\n      pop\n      swap4\n      pop\n      pop\n        /* \"VotingSystem.sol\":2703:2960  function getElection(uint256 electionId) public view returns (string memory name, uint256 startTime, uint256 endTime) {... */\n      swap2\n      swap4\n      swap1\n      swap3\n      pop\n      jump\t// out\n        /* \"VotingSystem.sol\":1979:2697  function getElectionResults(uint256 electionId) public view returns (string[] memory candidateNames, uint256[] memory voteCounts) {... */\n    tag_30:\n        /* \"VotingSystem.sol\":2120:2145  Election storage election */\n      0x00\n        /* \"VotingSystem.sol\":2148:2169  elections[electionId] */\n      dup2\n      dup2\n      mstore\n      0x20\n      dup2\n      swap1\n      mstore\n      0x40\n      swap1\n      keccak256\n        /* \"VotingSystem.sol\":2188:2204  election.endTime */\n      0x02\n      dup2\n      add\n      sload\n        /* \"VotingSystem.sol\":2048:2078  string[] memory candidateNames */\n      0x60\n      swap2\n      dup3\n      swap2\n        /* \"VotingSystem.sol\":2207:2222  block.timestamp */\n      timestamp\n      gt\n        /* \"VotingSystem.sol\":2180:2253  require(election.endTime < block.timestamp, \"Election has not yet ended\") */\n      tag_75\n      jumpi\n      mload(0x40)\n      shl(0xe5, 0x461bcd)\n      dup2\n      mstore\n        /* \"#utility.yul\":9187:9189   */\n      0x20\n        /* \"VotingSystem.sol\":2180:2253  require(election.endTime < block.timestamp, \"Election has not yet ended\") */\n      0x04\n      dup3\n      add\n        /* \"#utility.yul\":9169:9190   */\n      mstore\n        /* \"#utility.yul\":9226:9228   */\n      0x1a\n        /* \"#utility.yul\":9206:9224   */\n      0x24\n      dup3\n      add\n        /* \"#utility.yul\":9199:9229   */\n      mstore\n        /* \"#utility.yul\":9265:9293   */\n      0x456c656374696f6e20686173206e6f742079657420656e646564000000000000\n        /* \"#utility.yul\":9245:9263   */\n      0x44\n      dup3\n      add\n        /* \"#utility.yul\":9238:9294   */\n      mstore\n        /* \"#utility.yul\":9311:9329   */\n      0x64\n      add\n        /* \"VotingSystem.sol\":2180:2253  require(election.endTime < block.timestamp, \"Election has not yet ended\") */\n      tag_48\n        /* \"#utility.yul\":8985:9335   */\n      jump\n        /* \"VotingSystem.sol\":2180:2253  require(election.endTime < block.timestamp, \"Election has not yet ended\") */\n    tag_75:\n        /* \"VotingSystem.sol\":2290:2313  election.candidateNames */\n      0x05\n      dup2\n      add\n        /* \"VotingSystem.sol\":2290:2320  election.candidateNames.length */\n      sload\n      dup1\n        /* \"VotingSystem.sol\":2348:2375  new string[](numCandidates) */\n      0xffffffffffffffff\n      dup2\n      gt\n      iszero\n      tag_79\n      jumpi\n      tag_79\n      tag_80\n      jump\t// in\n    tag_79:\n      mload(0x40)\n      swap1\n      dup1\n      dup3\n      mstore\n      dup1\n      0x20\n      mul\n      0x20\n      add\n      dup3\n      add\n      0x40\n      mstore\n      dup1\n      iszero\n      tag_81\n      jumpi\n      dup2\n      0x20\n      add\n    tag_82:\n      0x60\n      dup2\n      mstore\n      0x20\n      add\n      swap1\n      0x01\n      swap1\n      sub\n      swap1\n      dup2\n      tag_82\n      jumpi\n      swap1\n      pop\n    tag_81:\n      pop\n        /* \"VotingSystem.sol\":2331:2375  candidateNames = new string[](numCandidates) */\n      swap4\n      pop\n        /* \"VotingSystem.sol\":2413:2426  numCandidates */\n      dup1\n        /* \"VotingSystem.sol\":2399:2427  new uint256[](numCandidates) */\n      0xffffffffffffffff\n      dup2\n      gt\n      iszero\n      tag_84\n      jumpi\n      tag_84\n      tag_80\n      jump\t// in\n    tag_84:\n      mload(0x40)\n      swap1\n      dup1\n      dup3\n      mstore\n      dup1\n      0x20\n      mul\n      0x20\n      add\n      dup3\n      add\n      0x40\n      mstore\n      dup1\n      iszero\n      tag_85\n      jumpi\n      dup2\n      0x20\n      add\n      0x20\n      dup3\n      mul\n      dup1\n      calldatasize\n      dup4\n      calldatacopy\n      add\n      swap1\n      pop\n    tag_85:\n      pop\n        /* \"VotingSystem.sol\":2386:2427  voteCounts = new uint256[](numCandidates) */\n      swap3\n      pop\n        /* \"VotingSystem.sol\":2445:2454  uint256 i */\n      0x00\n        /* \"VotingSystem.sol\":2440:2690  for (uint256 i = 0; i < numCandidates; i++) {... */\n    tag_86:\n        /* \"VotingSystem.sol\":2464:2477  numCandidates */\n      dup2\n        /* \"VotingSystem.sol\":2460:2461  i */\n      dup2\n        /* \"VotingSystem.sol\":2460:2477  i < numCandidates */\n      lt\n        /* \"VotingSystem.sol\":2440:2690  for (uint256 i = 0; i < numCandidates; i++) {... */\n      iszero\n      tag_87\n      jumpi\n        /* \"VotingSystem.sol\":2499:2526  string memory candidateName */\n      0x00\n        /* \"VotingSystem.sol\":2529:2537  election */\n      dup4\n        /* \"VotingSystem.sol\":2529:2552  election.candidateNames */\n      0x05\n      add\n        /* \"VotingSystem.sol\":2553:2554  i */\n      dup3\n        /* \"VotingSystem.sol\":2529:2555  election.candidateNames[i] */\n      dup2\n      sload\n      dup2\n      lt\n      tag_90\n      jumpi\n      tag_90\n      tag_91\n      jump\t// in\n    tag_90:\n      swap1\n      0x00\n      mstore\n      keccak256(0x00, 0x20)\n      add\n        /* \"VotingSystem.sol\":2499:2555  string memory candidateName = election.candidateNames[i] */\n      dup1\n      sload\n      tag_93\n      swap1\n      tag_41\n      jump\t// in\n    tag_93:\n      dup1\n      0x1f\n      add\n      0x20\n      dup1\n      swap2\n      div\n      mul\n      0x20\n      add\n      mload(0x40)\n      swap1\n      dup2\n      add\n      0x40\n      mstore\n      dup1\n      swap3\n      swap2\n      swap1\n      dup2\n      dup2\n      mstore\n      0x20\n      add\n      dup3\n      dup1\n      sload\n      tag_94\n      swap1\n      tag_41\n      jump\t// in\n    tag_94:\n      dup1\n      iszero\n      tag_95\n      jumpi\n      dup1\n      0x1f\n      lt\n      tag_96\n      jumpi\n      0x0100\n      dup1\n      dup4\n      sload\n      div\n      mul\n      dup4\n      mstore\n      swap2\n      0x20\n      add\n      swap2\n      jump(tag_95)\n    tag_96:\n      dup3\n      add\n      swap2\n      swap1\n      0x00\n      mstore\n      keccak256(0x00, 0x20)\n      swap1\n    tag_97:\n      dup2\n      sload\n      dup2\n      mstore\n      swap1\n      0x01\n      add\n      swap1\n      0x20\n      add\n      dup1\n      dup4\n      gt\n      tag_97\n      jumpi\n      dup3\n      swap1\n      sub\n      0x1f\n      and\n      dup3\n      add\n      swap2\n    tag_95:\n      pop\n      pop\n      pop\n      pop\n      pop\n      swap1\n      pop\n        /* \"VotingSystem.sol\":2590:2603  candidateName */\n      dup1\n        /* \"VotingSystem.sol\":2570:2584  candidateNames */\n      dup7\n        /* \"VotingSystem.sol\":2585:2586  i */\n      dup4\n        /* \"VotingSystem.sol\":2570:2587  candidateNames[i] */\n      dup2\n      mload\n      dup2\n      lt\n      tag_99\n      jumpi\n      tag_99\n      tag_91\n      jump\t// in\n    tag_99:\n      0x20\n      mul\n      0x20\n      add\n      add\n        /* \"VotingSystem.sol\":2570:2603  candidateNames[i] = candidateName */\n      dup2\n      swap1\n      mstore\n      pop\n        /* \"VotingSystem.sol\":2634:2642  election */\n      dup4\n        /* \"VotingSystem.sol\":2634:2653  election.candidates */\n      0x04\n      add\n        /* \"VotingSystem.sol\":2654:2667  candidateName */\n      dup2\n        /* \"VotingSystem.sol\":2634:2668  election.candidates[candidateName] */\n      mload(0x40)\n      tag_100\n      swap2\n      swap1\n      tag_39\n      jump\t// in\n    tag_100:\n      swap1\n      dup2\n      mstore\n      0x20\n      add\n      mload(0x40)\n      dup1\n      swap2\n      sub\n      swap1\n      keccak256\n        /* \"VotingSystem.sol\":2634:2678  election.candidates[candidateName].voteCount */\n      0x01\n      add\n      sload\n        /* \"VotingSystem.sol\":2618:2628  voteCounts */\n      dup6\n        /* \"VotingSystem.sol\":2629:2630  i */\n      dup4\n        /* \"VotingSystem.sol\":2618:2631  voteCounts[i] */\n      dup2\n      mload\n      dup2\n      lt\n      tag_102\n      jumpi\n      tag_102\n      tag_91\n      jump\t// in\n    tag_102:\n      0x20\n      swap1\n      dup2\n      mul\n      swap2\n      swap1\n      swap2\n      add\n      add\n        /* \"VotingSystem.sol\":2618:2678  voteCounts[i] = election.candidates[candidateName].voteCount */\n      mstore\n      pop\n        /* \"VotingSystem.sol\":2479:2482  i++ */\n      dup1\n      tag_103\n      dup2\n      tag_67\n      jump\t// in\n    tag_103:\n      swap2\n      pop\n      pop\n        /* \"VotingSystem.sol\":2440:2690  for (uint256 i = 0; i < numCandidates; i++) {... */\n      jump(tag_86)\n    tag_87:\n      pop\n        /* \"VotingSystem.sol\":2109:2697  {... */\n      pop\n      pop\n        /* \"VotingSystem.sol\":1979:2697  function getElectionResults(uint256 electionId) public view returns (string[] memory candidateNames, uint256[] memory voteCounts) {... */\n      swap2\n      pop\n      swap2\n      jump\t// out\n        /* \"VotingSystem.sol\":603:1095  function createElection(string memory name, uint256 startTime, uint256 endTime) public {... */\n    tag_36:\n        /* \"VotingSystem.sol\":721:736  block.timestamp */\n      timestamp\n        /* \"VotingSystem.sol\":709:718  startTime */\n      dup3\n        /* \"VotingSystem.sol\":709:736  startTime > block.timestamp */\n      gt\n        /* \"VotingSystem.sol\":701:782  require(startTime > block.timestamp, \"Election start time must be in the future\") */\n      tag_105\n      jumpi\n      mload(0x40)\n      shl(0xe5, 0x461bcd)\n      dup2\n      mstore\n        /* \"#utility.yul\":9674:9676   */\n      0x20\n        /* \"VotingSystem.sol\":701:782  require(startTime > block.timestamp, \"Election start time must be in the future\") */\n      0x04\n      dup3\n      add\n        /* \"#utility.yul\":9656:9677   */\n      mstore\n        /* \"#utility.yul\":9713:9715   */\n      0x29\n        /* \"#utility.yul\":9693:9711   */\n      0x24\n      dup3\n      add\n        /* \"#utility.yul\":9686:9716   */\n      mstore\n        /* \"#utility.yul\":9752:9786   */\n      0x456c656374696f6e2073746172742074696d65206d75737420626520696e2074\n        /* \"#utility.yul\":9732:9750   */\n      0x44\n      dup3\n      add\n        /* \"#utility.yul\":9725:9787   */\n      mstore\n        /* \"#utility.yul\":9823:9834   */\n      0x6865206675747572650000000000000000000000000000000000000000000000\n        /* \"#utility.yul\":9803:9821   */\n      0x64\n      dup3\n      add\n        /* \"#utility.yul\":9796:9835   */\n      mstore\n        /* \"#utility.yul\":9852:9871   */\n      0x84\n      add\n        /* \"VotingSystem.sol\":701:782  require(startTime > block.timestamp, \"Election start time must be in the future\") */\n      tag_48\n        /* \"#utility.yul\":9472:9877   */\n      jump\n        /* \"VotingSystem.sol\":701:782  require(startTime > block.timestamp, \"Election start time must be in the future\") */\n    tag_105:\n        /* \"VotingSystem.sol\":811:820  startTime */\n      dup2\n        /* \"VotingSystem.sol\":801:808  endTime */\n      dup2\n        /* \"VotingSystem.sol\":801:820  endTime > startTime */\n      gt\n        /* \"VotingSystem.sol\":793:871  require(endTime > startTime, \"Election end time must be after the start time\") */\n      tag_108\n      jumpi\n      mload(0x40)\n      shl(0xe5, 0x461bcd)\n      dup2\n      mstore\n        /* \"#utility.yul\":10084:10086   */\n      0x20\n        /* \"VotingSystem.sol\":793:871  require(endTime > startTime, \"Election end time must be after the start time\") */\n      0x04\n      dup3\n      add\n        /* \"#utility.yul\":10066:10087   */\n      mstore\n        /* \"#utility.yul\":10123:10125   */\n      0x2e\n        /* \"#utility.yul\":10103:10121   */\n      0x24\n      dup3\n      add\n        /* \"#utility.yul\":10096:10126   */\n      mstore\n        /* \"#utility.yul\":10162:10196   */\n      0x456c656374696f6e20656e642074696d65206d75737420626520616674657220\n        /* \"#utility.yul\":10142:10160   */\n      0x44\n      dup3\n      add\n        /* \"#utility.yul\":10135:10197   */\n      mstore\n        /* \"#utility.yul\":10233:10249   */\n      0x7468652073746172742074696d65000000000000000000000000000000000000\n        /* \"#utility.yul\":10213:10231   */\n      0x64\n      dup3\n      add\n        /* \"#utility.yul\":10206:10250   */\n      mstore\n        /* \"#utility.yul\":10267:10286   */\n      0x84\n      add\n        /* \"VotingSystem.sol\":793:871  require(endTime > startTime, \"Election end time must be after the start time\") */\n      tag_48\n        /* \"#utility.yul\":9882:10292   */\n      jump\n        /* \"VotingSystem.sol\":793:871  require(endTime > startTime, \"Election end time must be after the start time\") */\n    tag_108:\n        /* \"VotingSystem.sol\":925:939  nextElectionId */\n      sload(0x01)\n        /* \"VotingSystem.sol\":884:912  Election storage newElection */\n      0x00\n        /* \"VotingSystem.sol\":915:940  elections[nextElectionId] */\n      swap1\n      dup2\n      mstore\n      0x20\n      dup2\n      swap1\n      mstore\n      0x40\n      swap1\n      keccak256\n      dup1\n        /* \"VotingSystem.sol\":951:974  newElection.name = name */\n      tag_111\n        /* \"VotingSystem.sol\":970:974  name */\n      dup6\n        /* \"VotingSystem.sol\":915:940  elections[nextElectionId] */\n      dup3\n        /* \"VotingSystem.sol\":951:974  newElection.name = name */\n      tag_52\n      jump\t// in\n    tag_111:\n      pop\n        /* \"VotingSystem.sol\":985:1006  newElection.startTime */\n      0x01\n      dup1\n      dup3\n      add\n        /* \"VotingSystem.sol\":985:1018  newElection.startTime = startTime */\n      dup5\n      swap1\n      sstore\n        /* \"VotingSystem.sol\":1029:1048  newElection.endTime */\n      0x02\n      dup3\n      add\n        /* \"VotingSystem.sol\":1029:1058  newElection.endTime = endTime */\n      dup4\n      swap1\n      sstore\n        /* \"VotingSystem.sol\":1071:1087  nextElectionId++ */\n      dup1\n      sload\n      swap1\n      0x00\n      tag_112\n      dup4\n      tag_67\n      jump\t// in\n    tag_112:\n      swap2\n      swap1\n      pop\n      sstore\n      pop\n        /* \"VotingSystem.sol\":690:1095  {... */\n      pop\n        /* \"VotingSystem.sol\":603:1095  function createElection(string memory name, uint256 startTime, uint256 endTime) public {... */\n      pop\n      pop\n      pop\n      jump\t// out\n        /* \"#utility.yul\":14:141   */\n    tag_80:\n        /* \"#utility.yul\":75:85   */\n      0x4e487b71\n        /* \"#utility.yul\":70:73   */\n      0xe0\n        /* \"#utility.yul\":66:86   */\n      shl\n        /* \"#utility.yul\":63:64   */\n      0x00\n        /* \"#utility.yul\":56:87   */\n      mstore\n        /* \"#utility.yul\":106:110   */\n      0x41\n        /* \"#utility.yul\":103:104   */\n      0x04\n        /* \"#utility.yul\":96:111   */\n      mstore\n        /* \"#utility.yul\":130:134   */\n      0x24\n        /* \"#utility.yul\":127:128   */\n      0x00\n        /* \"#utility.yul\":120:135   */\n      revert\n        /* \"#utility.yul\":146:865   */\n    tag_113:\n        /* \"#utility.yul\":189:194   */\n      0x00\n        /* \"#utility.yul\":242:245   */\n      dup3\n        /* \"#utility.yul\":235:239   */\n      0x1f\n        /* \"#utility.yul\":227:233   */\n      dup4\n        /* \"#utility.yul\":223:240   */\n      add\n        /* \"#utility.yul\":219:246   */\n      slt\n        /* \"#utility.yul\":209:264   */\n      tag_122\n      jumpi\n        /* \"#utility.yul\":260:261   */\n      0x00\n        /* \"#utility.yul\":257:258   */\n      dup1\n        /* \"#utility.yul\":250:262   */\n      revert\n        /* \"#utility.yul\":209:264   */\n    tag_122:\n        /* \"#utility.yul\":296:302   */\n      dup2\n        /* \"#utility.yul\":283:303   */\n      calldataload\n        /* \"#utility.yul\":322:340   */\n      0xffffffffffffffff\n        /* \"#utility.yul\":359:361   */\n      dup1\n        /* \"#utility.yul\":355:357   */\n      dup3\n        /* \"#utility.yul\":352:362   */\n      gt\n        /* \"#utility.yul\":349:385   */\n      iszero\n      tag_124\n      jumpi\n        /* \"#utility.yul\":365:383   */\n      tag_124\n      tag_80\n      jump\t// in\n    tag_124:\n        /* \"#utility.yul\":440:442   */\n      0x40\n        /* \"#utility.yul\":434:443   */\n      mload\n        /* \"#utility.yul\":408:410   */\n      0x1f\n        /* \"#utility.yul\":494:507   */\n      dup4\n      add\n      not(0x1f)\n        /* \"#utility.yul\":490:512   */\n      swap1\n      dup2\n      and\n        /* \"#utility.yul\":514:516   */\n      0x3f\n        /* \"#utility.yul\":486:517   */\n      add\n        /* \"#utility.yul\":482:522   */\n      and\n        /* \"#utility.yul\":470:523   */\n      dup2\n      add\n      swap1\n        /* \"#utility.yul\":538:556   */\n      dup3\n      dup3\n      gt\n        /* \"#utility.yul\":558:580   */\n      dup2\n      dup4\n      lt\n        /* \"#utility.yul\":535:581   */\n      or\n        /* \"#utility.yul\":532:604   */\n      iszero\n      tag_126\n      jumpi\n        /* \"#utility.yul\":584:602   */\n      tag_126\n      tag_80\n      jump\t// in\n    tag_126:\n        /* \"#utility.yul\":624:634   */\n      dup2\n        /* \"#utility.yul\":620:622   */\n      0x40\n        /* \"#utility.yul\":613:635   */\n      mstore\n        /* \"#utility.yul\":659:661   */\n      dup4\n        /* \"#utility.yul\":651:657   */\n      dup2\n        /* \"#utility.yul\":644:662   */\n      mstore\n        /* \"#utility.yul\":705:708   */\n      dup7\n        /* \"#utility.yul\":698:702   */\n      0x20\n        /* \"#utility.yul\":693:695   */\n      dup6\n        /* \"#utility.yul\":685:691   */\n      dup9\n        /* \"#utility.yul\":681:696   */\n      add\n        /* \"#utility.yul\":677:703   */\n      add\n        /* \"#utility.yul\":674:709   */\n      gt\n        /* \"#utility.yul\":671:726   */\n      iszero\n      tag_127\n      jumpi\n        /* \"#utility.yul\":722:723   */\n      0x00\n        /* \"#utility.yul\":719:720   */\n      dup1\n        /* \"#utility.yul\":712:724   */\n      revert\n        /* \"#utility.yul\":671:726   */\n    tag_127:\n        /* \"#utility.yul\":786:788   */\n      dup4\n        /* \"#utility.yul\":779:783   */\n      0x20\n        /* \"#utility.yul\":771:777   */\n      dup8\n        /* \"#utility.yul\":767:784   */\n      add\n        /* \"#utility.yul\":760:764   */\n      0x20\n        /* \"#utility.yul\":752:758   */\n      dup4\n        /* \"#utility.yul\":748:765   */\n      add\n        /* \"#utility.yul\":735:789   */\n      calldatacopy\n        /* \"#utility.yul\":833:834   */\n      0x00\n        /* \"#utility.yul\":826:830   */\n      0x20\n        /* \"#utility.yul\":821:823   */\n      dup6\n        /* \"#utility.yul\":813:819   */\n      dup4\n        /* \"#utility.yul\":809:824   */\n      add\n        /* \"#utility.yul\":805:831   */\n      add\n        /* \"#utility.yul\":798:835   */\n      mstore\n        /* \"#utility.yul\":853:859   */\n      dup1\n        /* \"#utility.yul\":844:859   */\n      swap5\n      pop\n      pop\n      pop\n      pop\n      pop\n        /* \"#utility.yul\":146:865   */\n      swap3\n      swap2\n      pop\n      pop\n      jump\t// out\n        /* \"#utility.yul\":870:1260   */\n    tag_12:\n        /* \"#utility.yul\":948:954   */\n      0x00\n        /* \"#utility.yul\":956:962   */\n      dup1\n        /* \"#utility.yul\":1009:1011   */\n      0x40\n        /* \"#utility.yul\":997:1006   */\n      dup4\n        /* \"#utility.yul\":988:995   */\n      dup6\n        /* \"#utility.yul\":984:1007   */\n      sub\n        /* \"#utility.yul\":980:1012   */\n      slt\n        /* \"#utility.yul\":977:1029   */\n      iszero\n      tag_129\n      jumpi\n        /* \"#utility.yul\":1025:1026   */\n      0x00\n        /* \"#utility.yul\":1022:1023   */\n      dup1\n        /* \"#utility.yul\":1015:1027   */\n      revert\n        /* \"#utility.yul\":977:1029   */\n    tag_129:\n        /* \"#utility.yul\":1061:1070   */\n      dup3\n        /* \"#utility.yul\":1048:1071   */\n      calldataload\n        /* \"#utility.yul\":1038:1071   */\n      swap2\n      pop\n        /* \"#utility.yul\":1122:1124   */\n      0x20\n        /* \"#utility.yul\":1111:1120   */\n      dup4\n        /* \"#utility.yul\":1107:1125   */\n      add\n        /* \"#utility.yul\":1094:1126   */\n      calldataload\n        /* \"#utility.yul\":1149:1167   */\n      0xffffffffffffffff\n        /* \"#utility.yul\":1141:1147   */\n      dup2\n        /* \"#utility.yul\":1138:1168   */\n      gt\n        /* \"#utility.yul\":1135:1185   */\n      iszero\n      tag_130\n      jumpi\n        /* \"#utility.yul\":1181:1182   */\n      0x00\n        /* \"#utility.yul\":1178:1179   */\n      dup1\n        /* \"#utility.yul\":1171:1183   */\n      revert\n        /* \"#utility.yul\":1135:1185   */\n    tag_130:\n        /* \"#utility.yul\":1204:1254   */\n      tag_131\n        /* \"#utility.yul\":1246:1253   */\n      dup6\n        /* \"#utility.yul\":1237:1243   */\n      dup3\n        /* \"#utility.yul\":1226:1235   */\n      dup7\n        /* \"#utility.yul\":1222:1244   */\n      add\n        /* \"#utility.yul\":1204:1254   */\n      tag_113\n      jump\t// in\n    tag_131:\n        /* \"#utility.yul\":1194:1254   */\n      swap2\n      pop\n      pop\n        /* \"#utility.yul\":870:1260   */\n      swap3\n      pop\n      swap3\n      swap1\n      pop\n      jump\t// out\n        /* \"#utility.yul\":1265:1515   */\n    tag_114:\n        /* \"#utility.yul\":1350:1351   */\n      0x00\n        /* \"#utility.yul\":1360:1473   */\n    tag_133:\n        /* \"#utility.yul\":1374:1380   */\n      dup4\n        /* \"#utility.yul\":1371:1372   */\n      dup2\n        /* \"#utility.yul\":1368:1381   */\n      lt\n        /* \"#utility.yul\":1360:1473   */\n      iszero\n      tag_135\n      jumpi\n        /* \"#utility.yul\":1450:1461   */\n      dup2\n      dup2\n      add\n        /* \"#utility.yul\":1444:1462   */\n      mload\n        /* \"#utility.yul\":1431:1442   */\n      dup4\n      dup3\n      add\n        /* \"#utility.yul\":1424:1463   */\n      mstore\n        /* \"#utility.yul\":1396:1398   */\n      0x20\n        /* \"#utility.yul\":1389:1399   */\n      add\n        /* \"#utility.yul\":1360:1473   */\n      jump(tag_133)\n    tag_135:\n      pop\n      pop\n        /* \"#utility.yul\":1507:1508   */\n      0x00\n        /* \"#utility.yul\":1489:1505   */\n      swap2\n      add\n        /* \"#utility.yul\":1482:1509   */\n      mstore\n        /* \"#utility.yul\":1265:1515   */\n      jump\t// out\n        /* \"#utility.yul\":1520:1791   */\n    tag_115:\n        /* \"#utility.yul\":1562:1565   */\n      0x00\n        /* \"#utility.yul\":1600:1605   */\n      dup2\n        /* \"#utility.yul\":1594:1606   */\n      mload\n        /* \"#utility.yul\":1627:1633   */\n      dup1\n        /* \"#utility.yul\":1622:1625   */\n      dup5\n        /* \"#utility.yul\":1615:1634   */\n      mstore\n        /* \"#utility.yul\":1643:1719   */\n      tag_137\n        /* \"#utility.yul\":1712:1718   */\n      dup2\n        /* \"#utility.yul\":1705:1709   */\n      0x20\n        /* \"#utility.yul\":1700:1703   */\n      dup7\n        /* \"#utility.yul\":1696:1710   */\n      add\n        /* \"#utility.yul\":1689:1693   */\n      0x20\n        /* \"#utility.yul\":1682:1687   */\n      dup7\n        /* \"#utility.yul\":1678:1694   */\n      add\n        /* \"#utility.yul\":1643:1719   */\n      tag_114\n      jump\t// in\n    tag_137:\n        /* \"#utility.yul\":1773:1775   */\n      0x1f\n        /* \"#utility.yul\":1752:1767   */\n      add\n      not(0x1f)\n        /* \"#utility.yul\":1748:1777   */\n      and\n        /* \"#utility.yul\":1739:1778   */\n      swap3\n      swap1\n      swap3\n      add\n        /* \"#utility.yul\":1780:1784   */\n      0x20\n        /* \"#utility.yul\":1735:1785   */\n      add\n      swap3\n        /* \"#utility.yul\":1520:1791   */\n      swap2\n      pop\n      pop\n      jump\t// out\n        /* \"#utility.yul\":1796:2087   */\n    tag_15:\n        /* \"#utility.yul\":1973:1975   */\n      0x40\n        /* \"#utility.yul\":1962:1971   */\n      dup2\n        /* \"#utility.yul\":1955:1976   */\n      mstore\n        /* \"#utility.yul\":1936:1940   */\n      0x00\n        /* \"#utility.yul\":1993:2038   */\n      tag_139\n        /* \"#utility.yul\":2034:2036   */\n      0x40\n        /* \"#utility.yul\":2023:2032   */\n      dup4\n        /* \"#utility.yul\":2019:2037   */\n      add\n        /* \"#utility.yul\":2011:2017   */\n      dup6\n        /* \"#utility.yul\":1993:2038   */\n      tag_115\n      jump\t// in\n    tag_139:\n        /* \"#utility.yul\":1985:2038   */\n      swap1\n      pop\n        /* \"#utility.yul\":2074:2080   */\n      dup3\n        /* \"#utility.yul\":2069:2071   */\n      0x20\n        /* \"#utility.yul\":2058:2067   */\n      dup4\n        /* \"#utility.yul\":2054:2072   */\n      add\n        /* \"#utility.yul\":2047:2081   */\n      mstore\n        /* \"#utility.yul\":1796:2087   */\n      swap4\n      swap3\n      pop\n      pop\n      pop\n      jump\t// out\n        /* \"#utility.yul\":2092:2272   */\n    tag_24:\n        /* \"#utility.yul\":2151:2157   */\n      0x00\n        /* \"#utility.yul\":2204:2206   */\n      0x20\n        /* \"#utility.yul\":2192:2201   */\n      dup3\n        /* \"#utility.yul\":2183:2190   */\n      dup5\n        /* \"#utility.yul\":2179:2202   */\n      sub\n        /* \"#utility.yul\":2175:2207   */\n      slt\n        /* \"#utility.yul\":2172:2224   */\n      iszero\n      tag_141\n      jumpi\n        /* \"#utility.yul\":2220:2221   */\n      0x00\n        /* \"#utility.yul\":2217:2218   */\n      dup1\n        /* \"#utility.yul\":2210:2222   */\n      revert\n        /* \"#utility.yul\":2172:2224   */\n    tag_141:\n      pop\n        /* \"#utility.yul\":2243:2266   */\n      calldataload\n      swap2\n        /* \"#utility.yul\":2092:2272   */\n      swap1\n      pop\n      jump\t// out\n        /* \"#utility.yul\":2277:2639   */\n    tag_27:\n        /* \"#utility.yul\":2482:2484   */\n      0x60\n        /* \"#utility.yul\":2471:2480   */\n      dup2\n        /* \"#utility.yul\":2464:2485   */\n      mstore\n        /* \"#utility.yul\":2445:2449   */\n      0x00\n        /* \"#utility.yul\":2502:2547   */\n      tag_143\n        /* \"#utility.yul\":2543:2545   */\n      0x60\n        /* \"#utility.yul\":2532:2541   */\n      dup4\n        /* \"#utility.yul\":2528:2546   */\n      add\n        /* \"#utility.yul\":2520:2526   */\n      dup7\n        /* \"#utility.yul\":2502:2547   */\n      tag_115\n      jump\t// in\n    tag_143:\n        /* \"#utility.yul\":2578:2580   */\n      0x20\n        /* \"#utility.yul\":2563:2581   */\n      dup4\n      add\n        /* \"#utility.yul\":2556:2590   */\n      swap5\n      swap1\n      swap5\n      mstore\n      pop\n        /* \"#utility.yul\":2621:2623   */\n      0x40\n        /* \"#utility.yul\":2606:2624   */\n      add\n        /* \"#utility.yul\":2599:2633   */\n      mstore\n        /* \"#utility.yul\":2494:2547   */\n      swap2\n        /* \"#utility.yul\":2277:2639   */\n      swap1\n      pop\n      jump\t// out\n        /* \"#utility.yul\":2644:3976   */\n    tag_32:\n        /* \"#utility.yul\":2884:2888   */\n      0x00\n        /* \"#utility.yul\":2932:2934   */\n      0x40\n        /* \"#utility.yul\":2921:2930   */\n      dup3\n        /* \"#utility.yul\":2917:2935   */\n      add\n        /* \"#utility.yul\":2962:2964   */\n      0x40\n        /* \"#utility.yul\":2951:2960   */\n      dup4\n        /* \"#utility.yul\":2944:2965   */\n      mstore\n        /* \"#utility.yul\":2985:2991   */\n      dup1\n        /* \"#utility.yul\":3020:3026   */\n      dup6\n        /* \"#utility.yul\":3014:3027   */\n      mload\n        /* \"#utility.yul\":3051:3057   */\n      dup1\n        /* \"#utility.yul\":3043:3049   */\n      dup4\n        /* \"#utility.yul\":3036:3058   */\n      mstore\n        /* \"#utility.yul\":3089:3091   */\n      0x60\n        /* \"#utility.yul\":3078:3087   */\n      dup6\n        /* \"#utility.yul\":3074:3092   */\n      add\n        /* \"#utility.yul\":3067:3092   */\n      swap2\n      pop\n        /* \"#utility.yul\":3151:3153   */\n      0x60\n        /* \"#utility.yul\":3141:3147   */\n      dup2\n        /* \"#utility.yul\":3138:3139   */\n      0x05\n        /* \"#utility.yul\":3134:3148   */\n      shl\n        /* \"#utility.yul\":3123:3132   */\n      dup7\n        /* \"#utility.yul\":3119:3149   */\n      add\n        /* \"#utility.yul\":3115:3154   */\n      add\n        /* \"#utility.yul\":3101:3154   */\n      swap3\n      pop\n        /* \"#utility.yul\":3173:3177   */\n      0x20\n        /* \"#utility.yul\":3212:3214   */\n      dup1\n        /* \"#utility.yul\":3204:3210   */\n      dup9\n        /* \"#utility.yul\":3200:3215   */\n      add\n        /* \"#utility.yul\":3233:3234   */\n      0x00\n        /* \"#utility.yul\":3243:3498   */\n    tag_145:\n        /* \"#utility.yul\":3257:3263   */\n      dup4\n        /* \"#utility.yul\":3254:3255   */\n      dup2\n        /* \"#utility.yul\":3251:3264   */\n      lt\n        /* \"#utility.yul\":3243:3498   */\n      iszero\n      tag_147\n      jumpi\n        /* \"#utility.yul\":3350:3352   */\n      0x5f\n        /* \"#utility.yul\":3346:3353   */\n      not\n        /* \"#utility.yul\":3334:3343   */\n      dup9\n        /* \"#utility.yul\":3326:3332   */\n      dup8\n        /* \"#utility.yul\":3322:3344   */\n      sub\n        /* \"#utility.yul\":3318:3354   */\n      add\n        /* \"#utility.yul\":3313:3316   */\n      dup6\n        /* \"#utility.yul\":3306:3355   */\n      mstore\n        /* \"#utility.yul\":3378:3418   */\n      tag_148\n        /* \"#utility.yul\":3411:3417   */\n      dup7\n        /* \"#utility.yul\":3402:3408   */\n      dup4\n        /* \"#utility.yul\":3396:3409   */\n      mload\n        /* \"#utility.yul\":3378:3418   */\n      tag_115\n      jump\t// in\n    tag_148:\n        /* \"#utility.yul\":3368:3418   */\n      swap6\n      pop\n        /* \"#utility.yul\":3476:3488   */\n      swap4\n      dup3\n      add\n      swap4\n        /* \"#utility.yul\":3441:3456   */\n      swap1\n      dup3\n      add\n      swap1\n        /* \"#utility.yul\":3279:3280   */\n      0x01\n        /* \"#utility.yul\":3272:3281   */\n      add\n        /* \"#utility.yul\":3243:3498   */\n      jump(tag_145)\n    tag_147:\n      pop\n      pop\n        /* \"#utility.yul\":3534:3556   */\n      dup6\n      dup5\n      sub\n        /* \"#utility.yul\":3514:3532   */\n      dup2\n      dup8\n      add\n        /* \"#utility.yul\":3507:3557   */\n      mstore\n        /* \"#utility.yul\":3610:3623   */\n      dup7\n      mload\n        /* \"#utility.yul\":3632:3656   */\n      dup1\n      dup6\n      mstore\n        /* \"#utility.yul\":3714:3729   */\n      dup8\n      dup3\n      add\n      swap5\n        /* \"#utility.yul\":3674:3689   */\n      dup3\n      add\n      swap4\n      pop\n        /* \"#utility.yul\":3610:3623   */\n      swap2\n      pop\n        /* \"#utility.yul\":3749:3750   */\n      0x00\n        /* \"#utility.yul\":3759:3948   */\n    tag_149:\n        /* \"#utility.yul\":3775:3783   */\n      dup3\n        /* \"#utility.yul\":3770:3773   */\n      dup2\n        /* \"#utility.yul\":3767:3784   */\n      lt\n        /* \"#utility.yul\":3759:3948   */\n      iszero\n      tag_151\n      jumpi\n        /* \"#utility.yul\":3844:3859   */\n      dup5\n      mload\n        /* \"#utility.yul\":3830:3860   */\n      dup5\n      mstore\n        /* \"#utility.yul\":3921:3938   */\n      swap4\n      dup2\n      add\n      swap4\n        /* \"#utility.yul\":3882:3896   */\n      swap3\n      dup2\n      add\n      swap3\n        /* \"#utility.yul\":3803:3804   */\n      0x01\n        /* \"#utility.yul\":3794:3805   */\n      add\n        /* \"#utility.yul\":3759:3948   */\n      jump(tag_149)\n    tag_151:\n      pop\n        /* \"#utility.yul\":3965:3970   */\n      swap2\n      swap8\n        /* \"#utility.yul\":2644:3976   */\n      swap7\n      pop\n      pop\n      pop\n      pop\n      pop\n      pop\n      pop\n      jump\t// out\n        /* \"#utility.yul\":3981:4439   */\n    tag_35:\n        /* \"#utility.yul\":4068:4074   */\n      0x00\n        /* \"#utility.yul\":4076:4082   */\n      dup1\n        /* \"#utility.yul\":4084:4090   */\n      0x00\n        /* \"#utility.yul\":4137:4139   */\n      0x60\n        /* \"#utility.yul\":4125:4134   */\n      dup5\n        /* \"#utility.yul\":4116:4123   */\n      dup7\n        /* \"#utility.yul\":4112:4135   */\n      sub\n        /* \"#utility.yul\":4108:4140   */\n      slt\n        /* \"#utility.yul\":4105:4157   */\n      iszero\n      tag_153\n      jumpi\n        /* \"#utility.yul\":4153:4154   */\n      0x00\n        /* \"#utility.yul\":4150:4151   */\n      dup1\n        /* \"#utility.yul\":4143:4155   */\n      revert\n        /* \"#utility.yul\":4105:4157   */\n    tag_153:\n        /* \"#utility.yul\":4193:4202   */\n      dup4\n        /* \"#utility.yul\":4180:4203   */\n      calldataload\n        /* \"#utility.yul\":4226:4244   */\n      0xffffffffffffffff\n        /* \"#utility.yul\":4218:4224   */\n      dup2\n        /* \"#utility.yul\":4215:4245   */\n      gt\n        /* \"#utility.yul\":4212:4262   */\n      iszero\n      tag_154\n      jumpi\n        /* \"#utility.yul\":4258:4259   */\n      0x00\n        /* \"#utility.yul\":4255:4256   */\n      dup1\n        /* \"#utility.yul\":4248:4260   */\n      revert\n        /* \"#utility.yul\":4212:4262   */\n    tag_154:\n        /* \"#utility.yul\":4281:4331   */\n      tag_155\n        /* \"#utility.yul\":4323:4330   */\n      dup7\n        /* \"#utility.yul\":4314:4320   */\n      dup3\n        /* \"#utility.yul\":4303:4312   */\n      dup8\n        /* \"#utility.yul\":4299:4321   */\n      add\n        /* \"#utility.yul\":4281:4331   */\n      tag_113\n      jump\t// in\n    tag_155:\n        /* \"#utility.yul\":4271:4331   */\n      swap7\n        /* \"#utility.yul\":4378:4380   */\n      0x20\n        /* \"#utility.yul\":4363:4381   */\n      dup7\n      add\n        /* \"#utility.yul\":4350:4382   */\n      calldataload\n      swap7\n      pop\n        /* \"#utility.yul\":4429:4431   */\n      0x40\n        /* \"#utility.yul\":4414:4432   */\n      swap1\n      swap6\n      add\n        /* \"#utility.yul\":4401:4433   */\n      calldataload\n      swap5\n        /* \"#utility.yul\":3981:4439   */\n      swap4\n      pop\n      pop\n      pop\n      pop\n      jump\t// out\n        /* \"#utility.yul\":4444:4733   */\n    tag_39:\n        /* \"#utility.yul\":4575:4578   */\n      0x00\n        /* \"#utility.yul\":4613:4619   */\n      dup3\n        /* \"#utility.yul\":4607:4620   */\n      mload\n        /* \"#utility.yul\":4629:4695   */\n      tag_157\n        /* \"#utility.yul\":4688:4694   */\n      dup2\n        /* \"#utility.yul\":4683:4686   */\n      dup5\n        /* \"#utility.yul\":4676:4680   */\n      0x20\n        /* \"#utility.yul\":4668:4674   */\n      dup8\n        /* \"#utility.yul\":4664:4681   */\n      add\n        /* \"#utility.yul\":4629:4695   */\n      tag_114\n      jump\t// in\n    tag_157:\n        /* \"#utility.yul\":4711:4727   */\n      swap2\n      swap1\n      swap2\n      add\n      swap3\n        /* \"#utility.yul\":4444:4733   */\n      swap2\n      pop\n      pop\n      jump\t// out\n        /* \"#utility.yul\":4738:5118   */\n    tag_41:\n        /* \"#utility.yul\":4817:4818   */\n      0x01\n        /* \"#utility.yul\":4813:4825   */\n      dup2\n      dup2\n      shr\n      swap1\n        /* \"#utility.yul\":4860:4872   */\n      dup3\n      and\n      dup1\n        /* \"#utility.yul\":4881:4942   */\n      tag_159\n      jumpi\n        /* \"#utility.yul\":4935:4939   */\n      0x7f\n        /* \"#utility.yul\":4927:4933   */\n      dup3\n        /* \"#utility.yul\":4923:4940   */\n      and\n        /* \"#utility.yul\":4913:4940   */\n      swap2\n      pop\n        /* \"#utility.yul\":4881:4942   */\n    tag_159:\n        /* \"#utility.yul\":4988:4990   */\n      0x20\n        /* \"#utility.yul\":4980:4986   */\n      dup3\n        /* \"#utility.yul\":4977:4991   */\n      lt\n        /* \"#utility.yul\":4957:4975   */\n      dup2\n        /* \"#utility.yul\":4954:4992   */\n      sub\n        /* \"#utility.yul\":4951:5112   */\n      tag_160\n      jumpi\n        /* \"#utility.yul\":5034:5044   */\n      0x4e487b71\n        /* \"#utility.yul\":5029:5032   */\n      0xe0\n        /* \"#utility.yul\":5025:5045   */\n      shl\n        /* \"#utility.yul\":5022:5023   */\n      0x00\n        /* \"#utility.yul\":5015:5046   */\n      mstore\n        /* \"#utility.yul\":5069:5073   */\n      0x22\n        /* \"#utility.yul\":5066:5067   */\n      0x04\n        /* \"#utility.yul\":5059:5074   */\n      mstore\n        /* \"#utility.yul\":5097:5101   */\n      0x24\n        /* \"#utility.yul\":5094:5095   */\n      0x00\n        /* \"#utility.yul\":5087:5102   */\n      revert\n        /* \"#utility.yul\":4951:5112   */\n    tag_160:\n      pop\n        /* \"#utility.yul\":4738:5118   */\n      swap2\n      swap1\n      pop\n      jump\t// out\n        /* \"#utility.yul\":5606:6151   */\n    tag_117:\n        /* \"#utility.yul\":5708:5710   */\n      0x1f\n        /* \"#utility.yul\":5703:5706   */\n      dup3\n        /* \"#utility.yul\":5700:5711   */\n      gt\n        /* \"#utility.yul\":5697:6145   */\n      iszero\n      tag_164\n      jumpi\n        /* \"#utility.yul\":5744:5745   */\n      0x00\n        /* \"#utility.yul\":5769:5774   */\n      dup2\n        /* \"#utility.yul\":5765:5767   */\n      dup2\n        /* \"#utility.yul\":5758:5775   */\n      mstore\n        /* \"#utility.yul\":5814:5818   */\n      0x20\n        /* \"#utility.yul\":5810:5812   */\n      dup2\n        /* \"#utility.yul\":5800:5819   */\n      keccak256\n        /* \"#utility.yul\":5884:5886   */\n      0x1f\n        /* \"#utility.yul\":5872:5882   */\n      dup6\n        /* \"#utility.yul\":5868:5887   */\n      add\n        /* \"#utility.yul\":5865:5866   */\n      0x05\n        /* \"#utility.yul\":5861:5888   */\n      shr\n        /* \"#utility.yul\":5855:5859   */\n      dup2\n        /* \"#utility.yul\":5851:5889   */\n      add\n        /* \"#utility.yul\":5920:5924   */\n      0x20\n        /* \"#utility.yul\":5908:5918   */\n      dup7\n        /* \"#utility.yul\":5905:5925   */\n      lt\n        /* \"#utility.yul\":5902:5949   */\n      iszero\n      tag_165\n      jumpi\n      pop\n        /* \"#utility.yul\":5943:5947   */\n      dup1\n        /* \"#utility.yul\":5902:5949   */\n    tag_165:\n        /* \"#utility.yul\":5998:6000   */\n      0x1f\n        /* \"#utility.yul\":5993:5996   */\n      dup6\n        /* \"#utility.yul\":5989:6001   */\n      add\n        /* \"#utility.yul\":5986:5987   */\n      0x05\n        /* \"#utility.yul\":5982:6002   */\n      shr\n        /* \"#utility.yul\":5976:5980   */\n      dup3\n        /* \"#utility.yul\":5972:6003   */\n      add\n        /* \"#utility.yul\":5962:6003   */\n      swap2\n      pop\n        /* \"#utility.yul\":6053:6135   */\n    tag_166:\n        /* \"#utility.yul\":6071:6073   */\n      dup2\n        /* \"#utility.yul\":6064:6069   */\n      dup2\n        /* \"#utility.yul\":6061:6074   */\n      lt\n        /* \"#utility.yul\":6053:6135   */\n      iszero\n      tag_168\n      jumpi\n        /* \"#utility.yul\":6116:6133   */\n      dup3\n      dup2\n      sstore\n        /* \"#utility.yul\":6097:6098   */\n      0x01\n        /* \"#utility.yul\":6086:6099   */\n      add\n        /* \"#utility.yul\":6053:6135   */\n      jump(tag_166)\n    tag_168:\n        /* \"#utility.yul\":6057:6060   */\n      pop\n      pop\n      pop\n        /* \"#utility.yul\":5697:6145   */\n    tag_164:\n        /* \"#utility.yul\":5606:6151   */\n      pop\n      pop\n      pop\n      jump\t// out\n        /* \"#utility.yul\":6327:7679   */\n    tag_52:\n        /* \"#utility.yul\":6453:6456   */\n      dup2\n        /* \"#utility.yul\":6447:6457   */\n      mload\n        /* \"#utility.yul\":6480:6498   */\n      0xffffffffffffffff\n        /* \"#utility.yul\":6472:6478   */\n      dup2\n        /* \"#utility.yul\":6469:6499   */\n      gt\n        /* \"#utility.yul\":6466:6522   */\n      iszero\n      tag_172\n      jumpi\n        /* \"#utility.yul\":6502:6520   */\n      tag_172\n      tag_80\n      jump\t// in\n    tag_172:\n        /* \"#utility.yul\":6531:6628   */\n      tag_173\n        /* \"#utility.yul\":6621:6627   */\n      dup2\n        /* \"#utility.yul\":6581:6619   */\n      tag_174\n        /* \"#utility.yul\":6613:6617   */\n      dup5\n        /* \"#utility.yul\":6607:6618   */\n      sload\n        /* \"#utility.yul\":6581:6619   */\n      tag_41\n      jump\t// in\n    tag_174:\n        /* \"#utility.yul\":6575:6579   */\n      dup5\n        /* \"#utility.yul\":6531:6628   */\n      tag_117\n      jump\t// in\n    tag_173:\n        /* \"#utility.yul\":6683:6687   */\n      0x20\n      dup1\n        /* \"#utility.yul\":6747:6749   */\n      0x1f\n        /* \"#utility.yul\":6736:6750   */\n      dup4\n      gt\n        /* \"#utility.yul\":6764:6765   */\n      0x01\n        /* \"#utility.yul\":6759:7422   */\n      dup2\n      eq\n      tag_176\n      jumpi\n        /* \"#utility.yul\":7466:7467   */\n      0x00\n        /* \"#utility.yul\":7483:7489   */\n      dup5\n        /* \"#utility.yul\":7480:7569   */\n      iszero\n      tag_177\n      jumpi\n      pop\n        /* \"#utility.yul\":7535:7554   */\n      dup6\n      dup4\n      add\n        /* \"#utility.yul\":7529:7555   */\n      mload\n        /* \"#utility.yul\":7480:7569   */\n    tag_177:\n      not(0x00)\n        /* \"#utility.yul\":6284:6285   */\n      0x03\n        /* \"#utility.yul\":6280:6291   */\n      dup7\n      swap1\n      shl\n        /* \"#utility.yul\":6276:6300   */\n      shr\n        /* \"#utility.yul\":6272:6301   */\n      not\n        /* \"#utility.yul\":6262:6302   */\n      and\n        /* \"#utility.yul\":6308:6309   */\n      0x01\n        /* \"#utility.yul\":6304:6315   */\n      dup6\n      swap1\n      shl\n        /* \"#utility.yul\":6259:6316   */\n      or\n        /* \"#utility.yul\":7582:7663   */\n      dup6\n      sstore\n        /* \"#utility.yul\":6729:7673   */\n      jump(tag_168)\n        /* \"#utility.yul\":6759:7422   */\n    tag_176:\n        /* \"#utility.yul\":5553:5554   */\n      0x00\n        /* \"#utility.yul\":5546:5560   */\n      dup6\n      dup2\n      mstore\n        /* \"#utility.yul\":5590:5594   */\n      0x20\n        /* \"#utility.yul\":5577:5595   */\n      dup2\n      keccak256\n      not(0x1f)\n        /* \"#utility.yul\":6795:6815   */\n      dup7\n      and\n      swap2\n        /* \"#utility.yul\":6913:7149   */\n    tag_180:\n        /* \"#utility.yul\":6927:6934   */\n      dup3\n        /* \"#utility.yul\":6924:6925   */\n      dup2\n        /* \"#utility.yul\":6921:6935   */\n      lt\n        /* \"#utility.yul\":6913:7149   */\n      iszero\n      tag_182\n      jumpi\n        /* \"#utility.yul\":7016:7035   */\n      dup9\n      dup7\n      add\n        /* \"#utility.yul\":7010:7036   */\n      mload\n        /* \"#utility.yul\":6995:7037   */\n      dup3\n      sstore\n        /* \"#utility.yul\":7108:7135   */\n      swap5\n      dup5\n      add\n      swap5\n        /* \"#utility.yul\":7076:7077   */\n      0x01\n        /* \"#utility.yul\":7064:7078   */\n      swap1\n      swap2\n      add\n      swap1\n        /* \"#utility.yul\":6943:6962   */\n      dup5\n      add\n        /* \"#utility.yul\":6913:7149   */\n      jump(tag_180)\n    tag_182:\n        /* \"#utility.yul\":6917:6920   */\n      pop\n        /* \"#utility.yul\":7177:7183   */\n      dup6\n        /* \"#utility.yul\":7168:7175   */\n      dup3\n        /* \"#utility.yul\":7165:7184   */\n      lt\n        /* \"#utility.yul\":7162:7363   */\n      iszero\n      tag_183\n      jumpi\n        /* \"#utility.yul\":7238:7257   */\n      dup8\n      dup6\n      add\n        /* \"#utility.yul\":7232:7258   */\n      mload\n      not(0x00)\n        /* \"#utility.yul\":7321:7322   */\n      0x03\n        /* \"#utility.yul\":7317:7331   */\n      dup9\n      swap1\n      shl\n        /* \"#utility.yul\":7333:7336   */\n      0xf8\n        /* \"#utility.yul\":7313:7337   */\n      and\n        /* \"#utility.yul\":7309:7346   */\n      shr\n        /* \"#utility.yul\":7305:7347   */\n      not\n        /* \"#utility.yul\":7290:7348   */\n      and\n        /* \"#utility.yul\":7275:7349   */\n      dup2\n      sstore\n        /* \"#utility.yul\":7162:7363   */\n    tag_183:\n      pop\n      pop\n      pop\n      pop\n      pop\n        /* \"#utility.yul\":7409:7410   */\n      0x01\n        /* \"#utility.yul\":7393:7407   */\n      swap1\n      dup2\n      shl\n        /* \"#utility.yul\":7389:7411   */\n      add\n        /* \"#utility.yul\":7376:7412   */\n      swap1\n      sstore\n      pop\n        /* \"#utility.yul\":6327:7679   */\n      jump\t// out\n        /* \"#utility.yul\":8748:8980   */\n    tag_67:\n        /* \"#utility.yul\":8787:8790   */\n      0x00\n        /* \"#utility.yul\":8808:8825   */\n      0x01\n      dup3\n      add\n        /* \"#utility.yul\":8805:8945   */\n      tag_188\n      jumpi\n        /* \"#utility.yul\":8867:8877   */\n      0x4e487b71\n        /* \"#utility.yul\":8862:8865   */\n      0xe0\n        /* \"#utility.yul\":8858:8878   */\n      shl\n        /* \"#utility.yul\":8855:8856   */\n      0x00\n        /* \"#utility.yul\":8848:8879   */\n      mstore\n        /* \"#utility.yul\":8902:8906   */\n      0x11\n        /* \"#utility.yul\":8899:8900   */\n      0x04\n        /* \"#utility.yul\":8892:8907   */\n      mstore\n        /* \"#utility.yul\":8930:8934   */\n      0x24\n        /* \"#utility.yul\":8927:8928   */\n      0x00\n        /* \"#utility.yul\":8920:8935   */\n      revert\n        /* \"#utility.yul\":8805:8945   */\n    tag_188:\n      pop\n        /* \"#utility.yul\":8972:8973   */\n      0x01\n        /* \"#utility.yul\":8961:8974   */\n      add\n      swap1\n        /* \"#utility.yul\":8748:8980   */\n      jump\t// out\n        /* \"#utility.yul\":9340:9467   */\n    tag_91:\n        /* \"#utility.yul\":9401:9411   */\n      0x4e487b71\n        /* \"#utility.yul\":9396:9399   */\n      0xe0\n        /* \"#utility.yul\":9392:9412   */\n      shl\n        /* \"#utility.yul\":9389:9390   */\n      0x00\n        /* \"#utility.yul\":9382:9413   */\n      mstore\n        /* \"#utility.yul\":9432:9436   */\n      0x32\n        /* \"#utility.yul\":9429:9430   */\n      0x04\n        /* \"#utility.yul\":9422:9437   */\n      mstore\n        /* \"#utility.yul\":9456:9460   */\n      0x24\n        /* \"#utility.yul\":9453:9454   */\n      0x00\n        /* \"#utility.yul\":9446:9461   */\n      revert\n\n    auxdata: 0xa26469706673582212208d1bd0e8f9849435c72d52b3a6fcfe844ee1c87cb79bbecc2e45ce9d7333262064736f6c63430008110033\n}\n",
    "bytecode": {
      "linkReferences": {},
      "object": "608060405234801561001057600080fd5b50610ce4806100206000396000f3fe608060405234801561001057600080fd5b50600436106100725760003560e01c80639d710777116100505780639d710777146100c9578063e8ededa6146100eb578063f49a7a171461010c57600080fd5b80630d448ca9146100775780631750a3d0146100a157806324108475146100b6575b600080fd5b61008a61008536600461092c565b61011f565b6040516100989291906109c3565b60405180910390f35b6100b46100af36600461092c565b6101f9565b005b6100b46100c436600461092c565b6102d6565b6100dc6100d73660046109e5565b61046d565b604051610098939291906109fe565b6100fe6100f93660046109e5565b61052a565b604051610098929190610a23565b6100b461011a366004610abe565b61075a565b6000828152602081905260408082209051606092919082906004830190610147908790610b0c565b9081526020016040518091039020905080600001816001015481805461016c90610b28565b80601f016020809104026020016040519081016040528092919081815260200182805461019890610b28565b80156101e55780601f106101ba576101008083540402835291602001916101e5565b820191906000526020600020905b8154815290600101906020018083116101c857829003601f168201915b505050505091509350935050509250929050565b60008281526020819052604090206001810154421061025f5760405162461bcd60e51b815260206004820152601c60248201527f456c656374696f6e2068617320616c726561647920737461727465640000000060448201526064015b60405180910390fd5b6040518060400160405280838152602001600081525081600401836040516102879190610b0c565b908152604051908190036020019020815181906102a49082610bb1565b506020918201516001918201556005830180549182018155600090815291909120016102d08382610bb1565b50505050565b6000828152602081905260409020600181015442116103375760405162461bcd60e51b815260206004820152601c60248201527f456c656374696f6e20686173206e6f74207965742073746172746564000000006044820152606401610256565b4281600201541161038a5760405162461bcd60e51b815260206004820152601a60248201527f456c656374696f6e2068617320616c726561647920656e6465640000000000006044820152606401610256565b336000908152600382016020526040902054600160a01b900460ff16156103f35760405162461bcd60e51b815260206004820152601760248201527f566f7465722068617320616c726561647920766f7465640000000000000000006044820152606401610256565b3360009081526003820160205260409081902080547fffffffffffffffffffffff00ffffffffffffffffffffffffffffffffffffffff16600160a01b179055516004820190610443908490610b0c565b908152604051908190036020019020600101805490600061046383610c71565b9190505550505050565b600081815260208190526040812060018101546002820154825460609493849390928392839061049c90610b28565b80601f01602080910402602001604051908101604052809291908181526020018280546104c890610b28565b80156105155780601f106104ea57610100808354040283529160200191610515565b820191906000526020600020905b8154815290600101906020018083116104f857829003601f168201915b50505050509250935093509350509193909250565b60008181526020819052604090206002810154606091829142116105905760405162461bcd60e51b815260206004820152601a60248201527f456c656374696f6e20686173206e6f742079657420656e6465640000000000006044820152606401610256565b60058101548067ffffffffffffffff8111156105ae576105ae610889565b6040519080825280602002602001820160405280156105e157816020015b60608152602001906001900390816105cc5790505b5093508067ffffffffffffffff8111156105fd576105fd610889565b604051908082528060200260200182016040528015610626578160200160208202803683370190505b50925060005b8181101561075257600083600501828154811061064b5761064b610c98565b90600052602060002001805461066090610b28565b80601f016020809104026020016040519081016040528092919081815260200182805461068c90610b28565b80156106d95780601f106106ae576101008083540402835291602001916106d9565b820191906000526020600020905b8154815290600101906020018083116106bc57829003601f168201915b50505050509050808683815181106106f3576106f3610c98565b602002602001018190525083600401816040516107109190610b0c565b90815260200160405180910390206001015485838151811061073457610734610c98565b6020908102919091010152508061074a81610c71565b91505061062c565b505050915091565b4282116107cf5760405162461bcd60e51b815260206004820152602960248201527f456c656374696f6e2073746172742074696d65206d75737420626520696e207460448201527f68652066757475726500000000000000000000000000000000000000000000006064820152608401610256565b8181116108445760405162461bcd60e51b815260206004820152602e60248201527f456c656374696f6e20656e642074696d65206d7573742062652061667465722060448201527f7468652073746172742074696d650000000000000000000000000000000000006064820152608401610256565b6001546000908152602081905260409020806108608582610bb1565b50600180820184905560028201839055805490600061087e83610c71565b919050555050505050565b634e487b7160e01b600052604160045260246000fd5b600082601f8301126108b057600080fd5b813567ffffffffffffffff808211156108cb576108cb610889565b604051601f8301601f19908116603f011681019082821181831017156108f3576108f3610889565b8160405283815286602085880101111561090c57600080fd5b836020870160208301376000602085830101528094505050505092915050565b6000806040838503121561093f57600080fd5b82359150602083013567ffffffffffffffff81111561095d57600080fd5b6109698582860161089f565b9150509250929050565b60005b8381101561098e578181015183820152602001610976565b50506000910152565b600081518084526109af816020860160208601610973565b601f01601f19169290920160200192915050565b6040815260006109d66040830185610997565b90508260208301529392505050565b6000602082840312156109f757600080fd5b5035919050565b606081526000610a116060830186610997565b60208301949094525060400152919050565b6000604082016040835280855180835260608501915060608160051b8601019250602080880160005b83811015610a7a57605f19888703018552610a68868351610997565b95509382019390820190600101610a4c565b50508584038187015286518085528782019482019350915060005b82811015610ab157845184529381019392810192600101610a95565b5091979650505050505050565b600080600060608486031215610ad357600080fd5b833567ffffffffffffffff811115610aea57600080fd5b610af68682870161089f565b9660208601359650604090950135949350505050565b60008251610b1e818460208701610973565b9190910192915050565b600181811c90821680610b3c57607f821691505b602082108103610b5c57634e487b7160e01b600052602260045260246000fd5b50919050565b601f821115610bac57600081815260208120601f850160051c81016020861015610b895750805b601f850160051c820191505b81811015610ba857828155600101610b95565b5050505b505050565b815167ffffffffffffffff811115610bcb57610bcb610889565b610bdf81610bd98454610b28565b84610b62565b602080601f831160018114610c145760008415610bfc5750858301515b600019600386901b1c1916600185901b178555610ba8565b600085815260208120601f198616915b82811015610c4357888601518255948401946001909101908401610c24565b5085821015610c615787850151600019600388901b60f8161c191681555b5050505050600190811b01905550565b600060018201610c9157634e487b7160e01b600052601160045260246000fd5b5060010190565b634e487b7160e01b600052603260045260246000fdfea26469706673582212208d1bd0e8f9849435c72d52b3a6fcfe844ee1c87cb79bbecc2e45ce9d7333262064736f6c63430008110033",
      "opcodes": "PUSH1 0x80 PUSH1 0x40 MSTORE CALLVALUE DUP1 ISZERO PUSH2 0x10 JUMPI PUSH1 0x0 DUP1 REVERT JUMPDEST POP PUSH2 0xCE4 DUP1 PUSH2 0x20 PUSH1 0x0 CODECOPY PUSH1 0x0 RETURN INVALID PUSH1 0x80 PUSH1 0x40 MSTORE CALLVALUE DUP1 ISZERO PUSH2 0x10 JUMPI PUSH1 0x0 DUP1 REVERT JUMPDEST POP PUSH1 0x4 CALLDATASIZE LT PUSH2 0x72 JUMPI PUSH1 0x0 CALLDATALOAD PUSH1 0xE0 SHR DUP1 PUSH4 0x9D710777 GT PUSH2 0x50 JUMPI DUP1 PUSH4 0x9D710777 EQ PUSH2 0xC9 JUMPI DUP1 PUSH4 0xE8EDEDA6 EQ PUSH2 0xEB JUMPI DUP1 PUSH4 0xF49A7A17 EQ PUSH2 0x10C JUMPI PUSH1 0x0 DUP1 REVERT JUMPDEST DUP1 PUSH4 0xD448CA9 EQ PUSH2 0x77 JUMPI DUP1 PUSH4 0x1750A3D0 EQ PUSH2 0xA1 JUMPI DUP1 PUSH4 0x24108475 EQ PUSH2 0xB6 JUMPI JUMPDEST PUSH1 0x0 DUP1 REVERT JUMPDEST PUSH2 0x8A PUSH2 0x85 CALLDATASIZE PUSH1 0x4 PUSH2 0x92C JUMP JUMPDEST PUSH2 0x11F JUMP JUMPDEST PUSH1 0x40 MLOAD PUSH2 0x98 SWAP3 SWAP2 SWAP1 PUSH2 0x9C3 JUMP JUMPDEST PUSH1 0x40 MLOAD DUP1 SWAP2 SUB SWAP1 RETURN JUMPDEST PUSH2 0xB4 PUSH2 0xAF CALLDATASIZE PUSH1 0x4 PUSH2 0x92C JUMP JUMPDEST PUSH2 0x1F9 JUMP JUMPDEST STOP JUMPDEST PUSH2 0xB4 PUSH2 0xC4 CALLDATASIZE PUSH1 0x4 PUSH2 0x92C JUMP JUMPDEST PUSH2 0x2D6 JUMP JUMPDEST PUSH2 0xDC PUSH2 0xD7 CALLDATASIZE PUSH1 0x4 PUSH2 0x9E5 JUMP JUMPDEST PUSH2 0x46D JUMP JUMPDEST PUSH1 0x40 MLOAD PUSH2 0x98 SWAP4 SWAP3 SWAP2 SWAP1 PUSH2 0x9FE JUMP JUMPDEST PUSH2 0xFE PUSH2 0xF9 CALLDATASIZE PUSH1 0x4 PUSH2 0x9E5 JUMP JUMPDEST PUSH2 0x52A JUMP JUMPDEST PUSH1 0x40 MLOAD PUSH2 0x98 SWAP3 SWAP2 SWAP1 PUSH2 0xA23 JUMP JUMPDEST PUSH2 0xB4 PUSH2 0x11A CALLDATASIZE PUSH1 0x4 PUSH2 0xABE JUMP JUMPDEST PUSH2 0x75A JUMP JUMPDEST PUSH1 0x0 DUP3 DUP2 MSTORE PUSH1 0x20 DUP2 SWAP1 MSTORE PUSH1 0x40 DUP1 DUP3 KECCAK256 SWAP1 MLOAD PUSH1 0x60 SWAP3 SWAP2 SWAP1 DUP3 SWAP1 PUSH1 0x4 DUP4 ADD SWAP1 PUSH2 0x147 SWAP1 DUP8 SWAP1 PUSH2 0xB0C JUMP JUMPDEST SWAP1 DUP2 MSTORE PUSH1 0x20 ADD PUSH1 0x40 MLOAD DUP1 SWAP2 SUB SWAP1 KECCAK256 SWAP1 POP DUP1 PUSH1 0x0 ADD DUP2 PUSH1 0x1 ADD SLOAD DUP2 DUP1 SLOAD PUSH2 0x16C SWAP1 PUSH2 0xB28 JUMP JUMPDEST DUP1 PUSH1 0x1F ADD PUSH1 0x20 DUP1 SWAP2 DIV MUL PUSH1 0x20 ADD PUSH1 0x40 MLOAD SWAP1 DUP2 ADD PUSH1 0x40 MSTORE DUP1 SWAP3 SWAP2 SWAP1 DUP2 DUP2 MSTORE PUSH1 0x20 ADD DUP3 DUP1 SLOAD PUSH2 0x198 SWAP1 PUSH2 0xB28 JUMP JUMPDEST DUP1 ISZERO PUSH2 0x1E5 JUMPI DUP1 PUSH1 0x1F LT PUSH2 0x1BA JUMPI PUSH2 0x100 DUP1 DUP4 SLOAD DIV MUL DUP4 MSTORE SWAP2 PUSH1 0x20 ADD SWAP2 PUSH2 0x1E5 JUMP JUMPDEST DUP3 ADD SWAP2 SWAP1 PUSH1 0x0 MSTORE PUSH1 0x20 PUSH1 0x0 KECCAK256 SWAP1 JUMPDEST DUP2 SLOAD DUP2 MSTORE SWAP1 PUSH1 0x1 ADD SWAP1 PUSH1 0x20 ADD DUP1 DUP4 GT PUSH2 0x1C8 JUMPI DUP3 SWAP1 SUB PUSH1 0x1F AND DUP3 ADD SWAP2 JUMPDEST POP POP POP POP POP SWAP2 POP SWAP4 POP SWAP4 POP POP POP SWAP3 POP SWAP3 SWAP1 POP JUMP JUMPDEST PUSH1 0x0 DUP3 DUP2 MSTORE PUSH1 0x20 DUP2 SWAP1 MSTORE PUSH1 0x40 SWAP1 KECCAK256 PUSH1 0x1 DUP2 ADD SLOAD TIMESTAMP LT PUSH2 0x25F JUMPI PUSH1 0x40 MLOAD PUSH3 0x461BCD PUSH1 0xE5 SHL DUP2 MSTORE PUSH1 0x20 PUSH1 0x4 DUP3 ADD MSTORE PUSH1 0x1C PUSH1 0x24 DUP3 ADD MSTORE PUSH32 0x456C656374696F6E2068617320616C7265616479207374617274656400000000 PUSH1 0x44 DUP3 ADD MSTORE PUSH1 0x64 ADD JUMPDEST PUSH1 0x40 MLOAD DUP1 SWAP2 SUB SWAP1 REVERT JUMPDEST PUSH1 0x40 MLOAD DUP1 PUSH1 0x40 ADD PUSH1 0x40 MSTORE DUP1 DUP4 DUP2 MSTORE PUSH1 0x20 ADD PUSH1 0x0 DUP2 MSTORE POP DUP2 PUSH1 0x4 ADD DUP4 PUSH1 0x40 MLOAD PUSH2 0x287 SWAP2 SWAP1 PUSH2 0xB0C JUMP JUMPDEST SWAP1 DUP2 MSTORE PUSH1 0x40 MLOAD SWAP1 DUP2 SWAP1 SUB PUSH1 0x20 ADD SWAP1 KECCAK256 DUP2 MLOAD DUP2 SWAP1 PUSH2 0x2A4 SWAP1 DUP3 PUSH2 0xBB1 JUMP JUMPDEST POP PUSH1 0x20 SWAP2 DUP3 ADD MLOAD PUSH1 0x1 SWAP2 DUP3 ADD SSTORE PUSH1 0x5 DUP4 ADD DUP1 SLOAD SWAP2 DUP3 ADD DUP2 SSTORE PUSH1 0x0 SWAP1 DUP2 MSTORE SWAP2 SWAP1 SWAP2 KECCAK256 ADD PUSH2 0x2D0 DUP4 DUP3 PUSH2 0xBB1 JUMP JUMPDEST POP POP POP POP JUMP JUMPDEST PUSH1 0x0 DUP3 DUP2 MSTORE PUSH1 0x20 DUP2 SWAP1 MSTORE PUSH1 0x40 SWAP1 KECCAK256 PUSH1 0x1 DUP2 ADD SLOAD TIMESTAMP GT PUSH2 0x337 JUMPI PUSH1 0x40 MLOAD PUSH3 0x461BCD PUSH1 0xE5 SHL DUP2 MSTORE PUSH1 0x20 PUSH1 0x4 DUP3 ADD MSTORE PUSH1 0x1C PUSH1 0x24 DUP3 ADD MSTORE PUSH32 0x456C656374696F6E20686173206E6F7420796574207374617274656400000000 PUSH1 0x44 DUP3 ADD MSTORE PUSH1 0x64 ADD PUSH2 0x256 JUMP JUMPDEST TIMESTAMP DUP2 PUSH1 0x2 ADD SLOAD GT PUSH2 0x38A JUMPI PUSH1 0x40 MLOAD PUSH3 0x461BCD PUSH1 0xE5 SHL DUP2 MSTORE PUSH1 0x20 PUSH1 0x4 DUP3 ADD MSTORE PUSH1 0x1A PUSH1 0x24 DUP3 ADD MSTORE PUSH32 0x456C656374696F6E2068617320616C726561647920656E646564000000000000 PUSH1 0x44 DUP3 ADD MSTORE PUSH1 0x64 ADD PUSH2 0x256 JUMP JUMPDEST CALLER PUSH1 0x0 SWAP1 DUP2 MSTORE PUSH1 0x3 DUP3 ADD PUSH1 0x20 MSTORE PUSH1 0x40 SWAP1 KECCAK256 SLOAD PUSH1 0x1 PUSH1 0xA0 SHL SWAP1 DIV PUSH1 0xFF AND ISZERO PUSH2 0x3F3 JUMPI PUSH1 0x40 MLOAD PUSH3 0x461BCD PUSH1 0xE5 SHL DUP2 MSTORE PUSH1 0x20 PUSH1 0x4 DUP3 ADD MSTORE PUSH1 0x17 PUSH1 0x24 DUP3 ADD MSTORE PUSH32 0x566F7465722068617320616C726561647920766F746564000000000000000000 PUSH1 0x44 DUP3 ADD MSTORE PUSH1 0x64 ADD PUSH2 0x256 JUMP JUMPDEST CALLER PUSH1 0x0 SWAP1 DUP2 MSTORE PUSH1 0x3 DUP3 ADD PUSH1 0x20 MSTORE PUSH1 0x40 SWAP1 DUP2 SWAP1 KECCAK256 DUP1 SLOAD PUSH32 0xFFFFFFFFFFFFFFFFFFFFFF00FFFFFFFFFFFFFFFFFFFFFFFFFFFFFFFFFFFFFFFF AND PUSH1 0x1 PUSH1 0xA0 SHL OR SWAP1 SSTORE MLOAD PUSH1 0x4 DUP3 ADD SWAP1 PUSH2 0x443 SWAP1 DUP5 SWAP1 PUSH2 0xB0C JUMP JUMPDEST SWAP1 DUP2 MSTORE PUSH1 0x40 MLOAD SWAP1 DUP2 SWAP1 SUB PUSH1 0x20 ADD SWAP1 KECCAK256 PUSH1 0x1 ADD DUP1 SLOAD SWAP1 PUSH1 0x0 PUSH2 0x463 DUP4 PUSH2 0xC71 JUMP JUMPDEST SWAP2 SWAP1 POP SSTORE POP POP POP POP JUMP JUMPDEST PUSH1 0x0 DUP2 DUP2 MSTORE PUSH1 0x20 DUP2 SWAP1 MSTORE PUSH1 0x40 DUP2 KECCAK256 PUSH1 0x1 DUP2 ADD SLOAD PUSH1 0x2 DUP3 ADD SLOAD DUP3 SLOAD PUSH1 0x60 SWAP5 SWAP4 DUP5 SWAP4 SWAP1 SWAP3 DUP4 SWAP3 DUP4 SWAP1 PUSH2 0x49C SWAP1 PUSH2 0xB28 JUMP JUMPDEST DUP1 PUSH1 0x1F ADD PUSH1 0x20 DUP1 SWAP2 DIV MUL PUSH1 0x20 ADD PUSH1 0x40 MLOAD SWAP1 DUP2 ADD PUSH1 0x40 MSTORE DUP1 SWAP3 SWAP2 SWAP1 DUP2 DUP2 MSTORE PUSH1 0x20 ADD DUP3 DUP1 SLOAD PUSH2 0x4C8 SWAP1 PUSH2 0xB28 JUMP JUMPDEST DUP1 ISZERO PUSH2 0x515 JUMPI DUP1 PUSH1 0x1F LT PUSH2 0x4EA JUMPI PUSH2 0x100 DUP1 DUP4 SLOAD DIV MUL DUP4 MSTORE SWAP2 PUSH1 0x20 ADD SWAP2 PUSH2 0x515 JUMP JUMPDEST DUP3 ADD SWAP2 SWAP1 PUSH1 0x0 MSTORE PUSH1 0x20 PUSH1 0x0 KECCAK256 SWAP1 JUMPDEST DUP2 SLOAD DUP2 MSTORE SWAP1 PUSH1 0x1 ADD SWAP1 PUSH1 0x20 ADD DUP1 DUP4 GT PUSH2 0x4F8 JUMPI DUP3 SWAP1 SUB PUSH1 0x1F AND DUP3 ADD SWAP2 JUMPDEST POP POP POP POP POP SWAP3 POP SWAP4 POP SWAP4 POP SWAP4 POP POP SWAP2 SWAP4 SWAP1 SWAP3 POP JUMP JUMPDEST PUSH1 0x0 DUP2 DUP2 MSTORE PUSH1 0x20 DUP2 SWAP1 MSTORE PUSH1 0x40 SWAP1 KECCAK256 PUSH1 0x2 DUP2 ADD SLOAD PUSH1 0x60 SWAP2 DUP3 SWAP2 TIMESTAMP GT PUSH2 0x590 JUMPI PUSH1 0x40 MLOAD PUSH3 0x461BCD PUSH1 0xE5 SHL DUP2 MSTORE PUSH1 0x20 PUSH1 0x4 DUP3 ADD MSTORE PUSH1 0x1A PUSH1 0x24 DUP3 ADD MSTORE PUSH32 0x456C656374696F6E20686173206E6F742079657420656E646564000000000000 PUSH1 0x44 DUP3 ADD MSTORE PUSH1 0x64 ADD PUSH2 0x256 JUMP JUMPDEST PUSH1 0x5 DUP2 ADD SLOAD DUP1 PUSH8 0xFFFFFFFFFFFFFFFF DUP2 GT ISZERO PUSH2 0x5AE JUMPI PUSH2 0x5AE PUSH2 0x889 JUMP JUMPDEST PUSH1 0x40 MLOAD SWAP1 DUP1 DUP3 MSTORE DUP1 PUSH1 0x20 MUL PUSH1 0x20 ADD DUP3 ADD PUSH1 0x40 MSTORE DUP1 ISZERO PUSH2 0x5E1 JUMPI DUP2 PUSH1 0x20 ADD JUMPDEST PUSH1 0x60 DUP2 MSTORE PUSH1 0x20 ADD SWAP1 PUSH1 0x1 SWAP1 SUB SWAP1 DUP2 PUSH2 0x5CC JUMPI SWAP1 POP JUMPDEST POP SWAP4 POP DUP1 PUSH8 0xFFFFFFFFFFFFFFFF DUP2 GT ISZERO PUSH2 0x5FD JUMPI PUSH2 0x5FD PUSH2 0x889 JUMP JUMPDEST PUSH1 0x40 MLOAD SWAP1 DUP1 DUP3 MSTORE DUP1 PUSH1 0x20 MUL PUSH1 0x20 ADD DUP3 ADD PUSH1 0x40 MSTORE DUP1 ISZERO PUSH2 0x626 JUMPI DUP2 PUSH1 0x20 ADD PUSH1 0x20 DUP3 MUL DUP1 CALLDATASIZE DUP4 CALLDATACOPY ADD SWAP1 POP JUMPDEST POP SWAP3 POP PUSH1 0x0 JUMPDEST DUP2 DUP2 LT ISZERO PUSH2 0x752 JUMPI PUSH1 0x0 DUP4 PUSH1 0x5 ADD DUP3 DUP2 SLOAD DUP2 LT PUSH2 0x64B JUMPI PUSH2 0x64B PUSH2 0xC98 JUMP JUMPDEST SWAP1 PUSH1 0x0 MSTORE PUSH1 0x20 PUSH1 0x0 KECCAK256 ADD DUP1 SLOAD PUSH2 0x660 SWAP1 PUSH2 0xB28 JUMP JUMPDEST DUP1 PUSH1 0x1F ADD PUSH1 0x20 DUP1 SWAP2 DIV MUL PUSH1 0x20 ADD PUSH1 0x40 MLOAD SWAP1 DUP2 ADD PUSH1 0x40 MSTORE DUP1 SWAP3 SWAP2 SWAP1 DUP2 DUP2 MSTORE PUSH1 0x20 ADD DUP3 DUP1 SLOAD PUSH2 0x68C SWAP1 PUSH2 0xB28 JUMP JUMPDEST DUP1 ISZERO PUSH2 0x6D9 JUMPI DUP1 PUSH1 0x1F LT PUSH2 0x6AE JUMPI PUSH2 0x100 DUP1 DUP4 SLOAD DIV MUL DUP4 MSTORE SWAP2 PUSH1 0x20 ADD SWAP2 PUSH2 0x6D9 JUMP JUMPDEST DUP3 ADD SWAP2 SWAP1 PUSH1 0x0 MSTORE PUSH1 0x20 PUSH1 0x0 KECCAK256 SWAP1 JUMPDEST DUP2 SLOAD DUP2 MSTORE SWAP1 PUSH1 0x1 ADD SWAP1 PUSH1 0x20 ADD DUP1 DUP4 GT PUSH2 0x6BC JUMPI DUP3 SWAP1 SUB PUSH1 0x1F AND DUP3 ADD SWAP2 JUMPDEST POP POP POP POP POP SWAP1 POP DUP1 DUP7 DUP4 DUP2 MLOAD DUP2 LT PUSH2 0x6F3 JUMPI PUSH2 0x6F3 PUSH2 0xC98 JUMP JUMPDEST PUSH1 0x20 MUL PUSH1 0x20 ADD ADD DUP2 SWAP1 MSTORE POP DUP4 PUSH1 0x4 ADD DUP2 PUSH1 0x40 MLOAD PUSH2 0x710 SWAP2 SWAP1 PUSH2 0xB0C JUMP JUMPDEST SWAP1 DUP2 MSTORE PUSH1 0x20 ADD PUSH1 0x40 MLOAD DUP1 SWAP2 SUB SWAP1 KECCAK256 PUSH1 0x1 ADD SLOAD DUP6 DUP4 DUP2 MLOAD DUP2 LT PUSH2 0x734 JUMPI PUSH2 0x734 PUSH2 0xC98 JUMP JUMPDEST PUSH1 0x20 SWAP1 DUP2 MUL SWAP2 SWAP1 SWAP2 ADD ADD MSTORE POP DUP1 PUSH2 0x74A DUP2 PUSH2 0xC71 JUMP JUMPDEST SWAP2 POP POP PUSH2 0x62C JUMP JUMPDEST POP POP POP SWAP2 POP SWAP2 JUMP JUMPDEST TIMESTAMP DUP3 GT PUSH2 0x7CF JUMPI PUSH1 0x40 MLOAD PUSH3 0x461BCD PUSH1 0xE5 SHL DUP2 MSTORE PUSH1 0x20 PUSH1 0x4 DUP3 ADD MSTORE PUSH1 0x29 PUSH1 0x24 DUP3 ADD MSTORE PUSH32 0x456C656374696F6E2073746172742074696D65206D75737420626520696E2074 PUSH1 0x44 DUP3 ADD MSTORE PUSH32 0x6865206675747572650000000000000000000000000000000000000000000000 PUSH1 0x64 DUP3 ADD MSTORE PUSH1 0x84 ADD PUSH2 0x256 JUMP JUMPDEST DUP2 DUP2 GT PUSH2 0x844 JUMPI PUSH1 0x40 MLOAD PUSH3 0x461BCD PUSH1 0xE5 SHL DUP2 MSTORE PUSH1 0x20 PUSH1 0x4 DUP3 ADD MSTORE PUSH1 0x2E PUSH1 0x24 DUP3 ADD MSTORE PUSH32 0x456C656374696F6E20656E642074696D65206D75737420626520616674657220 PUSH1 0x44 DUP3 ADD MSTORE PUSH32 0x7468652073746172742074696D65000000000000000000000000000000000000 PUSH1 0x64 DUP3 ADD MSTORE PUSH1 0x84 ADD PUSH2 0x256 JUMP JUMPDEST PUSH1 0x1 SLOAD PUSH1 0x0 SWAP1 DUP2 MSTORE PUSH1 0x20 DUP2 SWAP1 MSTORE PUSH1 0x40 SWAP1 KECCAK256 DUP1 PUSH2 0x860 DUP6 DUP3 PUSH2 0xBB1 JUMP JUMPDEST POP PUSH1 0x1 DUP1 DUP3 ADD DUP5 SWAP1 SSTORE PUSH1 0x2 DUP3 ADD DUP4 SWAP1 SSTORE DUP1 SLOAD SWAP1 PUSH1 0x0 PUSH2 0x87E DUP4 PUSH2 0xC71 JUMP JUMPDEST SWAP2 SWAP1 POP SSTORE POP POP POP POP POP JUMP JUMPDEST PUSH4 0x4E487B71 PUSH1 0xE0 SHL PUSH1 0x0 MSTORE PUSH1 0x41 PUSH1 0x4 MSTORE PUSH1 0x24 PUSH1 0x0 REVERT JUMPDEST PUSH1 0x0 DUP3 PUSH1 0x1F DUP4 ADD SLT PUSH2 0x8B0 JUMPI PUSH1 0x0 DUP1 REVERT JUMPDEST DUP2 CALLDATALOAD PUSH8 0xFFFFFFFFFFFFFFFF DUP1 DUP3 GT ISZERO PUSH2 0x8CB JUMPI PUSH2 0x8CB PUSH2 0x889 JUMP JUMPDEST PUSH1 0x40 MLOAD PUSH1 0x1F DUP4 ADD PUSH1 0x1F NOT SWAP1 DUP2 AND PUSH1 0x3F ADD AND DUP2 ADD SWAP1 DUP3 DUP3 GT DUP2 DUP4 LT OR ISZERO PUSH2 0x8F3 JUMPI PUSH2 0x8F3 PUSH2 0x889 JUMP JUMPDEST DUP2 PUSH1 0x40 MSTORE DUP4 DUP2 MSTORE DUP7 PUSH1 0x20 DUP6 DUP9 ADD ADD GT ISZERO PUSH2 0x90C JUMPI PUSH1 0x0 DUP1 REVERT JUMPDEST DUP4 PUSH1 0x20 DUP8 ADD PUSH1 0x20 DUP4 ADD CALLDATACOPY PUSH1 0x0 PUSH1 0x20 DUP6 DUP4 ADD ADD MSTORE DUP1 SWAP5 POP POP POP POP POP SWAP3 SWAP2 POP POP JUMP JUMPDEST PUSH1 0x0 DUP1 PUSH1 0x40 DUP4 DUP6 SUB SLT ISZERO PUSH2 0x93F JUMPI PUSH1 0x0 DUP1 REVERT JUMPDEST DUP3 CALLDATALOAD SWAP2 POP PUSH1 0x20 DUP4 ADD CALLDATALOAD PUSH8 0xFFFFFFFFFFFFFFFF DUP2 GT ISZERO PUSH2 0x95D JUMPI PUSH1 0x0 DUP1 REVERT JUMPDEST PUSH2 0x969 DUP6 DUP3 DUP7 ADD PUSH2 0x89F JUMP JUMPDEST SWAP2 POP POP SWAP3 POP SWAP3 SWAP1 POP JUMP JUMPDEST PUSH1 0x0 JUMPDEST DUP4 DUP2 LT ISZERO PUSH2 0x98E JUMPI DUP2 DUP2 ADD MLOAD DUP4 DUP3 ADD MSTORE PUSH1 0x20 ADD PUSH2 0x976 JUMP JUMPDEST POP POP PUSH1 0x0 SWAP2 ADD MSTORE JUMP JUMPDEST PUSH1 0x0 DUP2 MLOAD DUP1 DUP5 MSTORE PUSH2 0x9AF DUP2 PUSH1 0x20 DUP7 ADD PUSH1 0x20 DUP7 ADD PUSH2 0x973 JUMP JUMPDEST PUSH1 0x1F ADD PUSH1 0x1F NOT AND SWAP3 SWAP1 SWAP3 ADD PUSH1 0x20 ADD SWAP3 SWAP2 POP POP JUMP JUMPDEST PUSH1 0x40 DUP2 MSTORE PUSH1 0x0 PUSH2 0x9D6 PUSH1 0x40 DUP4 ADD DUP6 PUSH2 0x997 JUMP JUMPDEST SWAP1 POP DUP3 PUSH1 0x20 DUP4 ADD MSTORE SWAP4 SWAP3 POP POP POP JUMP JUMPDEST PUSH1 0x0 PUSH1 0x20 DUP3 DUP5 SUB SLT ISZERO PUSH2 0x9F7 JUMPI PUSH1 0x0 DUP1 REVERT JUMPDEST POP CALLDATALOAD SWAP2 SWAP1 POP JUMP JUMPDEST PUSH1 0x60 DUP2 MSTORE PUSH1 0x0 PUSH2 0xA11 PUSH1 0x60 DUP4 ADD DUP7 PUSH2 0x997 JUMP JUMPDEST PUSH1 0x20 DUP4 ADD SWAP5 SWAP1 SWAP5 MSTORE POP PUSH1 0x40 ADD MSTORE SWAP2 SWAP1 POP JUMP JUMPDEST PUSH1 0x0 PUSH1 0x40 DUP3 ADD PUSH1 0x40 DUP4 MSTORE DUP1 DUP6 MLOAD DUP1 DUP4 MSTORE PUSH1 0x60 DUP6 ADD SWAP2 POP PUSH1 0x60 DUP2 PUSH1 0x5 SHL DUP7 ADD ADD SWAP3 POP PUSH1 0x20 DUP1 DUP9 ADD PUSH1 0x0 JUMPDEST DUP4 DUP2 LT ISZERO PUSH2 0xA7A JUMPI PUSH1 0x5F NOT DUP9 DUP8 SUB ADD DUP6 MSTORE PUSH2 0xA68 DUP7 DUP4 MLOAD PUSH2 0x997 JUMP JUMPDEST SWAP6 POP SWAP4 DUP3 ADD SWAP4 SWAP1 DUP3 ADD SWAP1 PUSH1 0x1 ADD PUSH2 0xA4C JUMP JUMPDEST POP POP DUP6 DUP5 SUB DUP2 DUP8 ADD MSTORE DUP7 MLOAD DUP1 DUP6 MSTORE DUP8 DUP3 ADD SWAP5 DUP3 ADD SWAP4 POP SWAP2 POP PUSH1 0x0 JUMPDEST DUP3 DUP2 LT ISZERO PUSH2 0xAB1 JUMPI DUP5 MLOAD DUP5 MSTORE SWAP4 DUP2 ADD SWAP4 SWAP3 DUP2 ADD SWAP3 PUSH1 0x1 ADD PUSH2 0xA95 JUMP JUMPDEST POP SWAP2 SWAP8 SWAP7 POP POP POP POP POP POP POP JUMP JUMPDEST PUSH1 0x0 DUP1 PUSH1 0x0 PUSH1 0x60 DUP5 DUP7 SUB SLT ISZERO PUSH2 0xAD3 JUMPI PUSH1 0x0 DUP1 REVERT JUMPDEST DUP4 CALLDATALOAD PUSH8 0xFFFFFFFFFFFFFFFF DUP2 GT ISZERO PUSH2 0xAEA JUMPI PUSH1 0x0 DUP1 REVERT JUMPDEST PUSH2 0xAF6 DUP7 DUP3 DUP8 ADD PUSH2 0x89F JUMP JUMPDEST SWAP7 PUSH1 0x20 DUP7 ADD CALLDATALOAD SWAP7 POP PUSH1 0x40 SWAP1 SWAP6 ADD CALLDATALOAD SWAP5 SWAP4 POP POP POP POP JUMP JUMPDEST PUSH1 0x0 DUP3 MLOAD PUSH2 0xB1E DUP2 DUP5 PUSH1 0x20 DUP8 ADD PUSH2 0x973 JUMP JUMPDEST SWAP2 SWAP1 SWAP2 ADD SWAP3 SWAP2 POP POP JUMP JUMPDEST PUSH1 0x1 DUP2 DUP2 SHR SWAP1 DUP3 AND DUP1 PUSH2 0xB3C JUMPI PUSH1 0x7F DUP3 AND SWAP2 POP JUMPDEST PUSH1 0x20 DUP3 LT DUP2 SUB PUSH2 0xB5C JUMPI PUSH4 0x4E487B71 PUSH1 0xE0 SHL PUSH1 0x0 MSTORE PUSH1 0x22 PUSH1 0x4 MSTORE PUSH1 0x24 PUSH1 0x0 REVERT JUMPDEST POP SWAP2 SWAP1 POP JUMP JUMPDEST PUSH1 0x1F DUP3 GT ISZERO PUSH2 0xBAC JUMPI PUSH1 0x0 DUP2 DUP2 MSTORE PUSH1 0x20 DUP2 KECCAK256 PUSH1 0x1F DUP6 ADD PUSH1 0x5 SHR DUP2 ADD PUSH1 0x20 DUP7 LT ISZERO PUSH2 0xB89 JUMPI POP DUP1 JUMPDEST PUSH1 0x1F DUP6 ADD PUSH1 0x5 SHR DUP3 ADD SWAP2 POP JUMPDEST DUP2 DUP2 LT ISZERO PUSH2 0xBA8 JUMPI DUP3 DUP2 SSTORE PUSH1 0x1 ADD PUSH2 0xB95 JUMP JUMPDEST POP POP POP JUMPDEST POP POP POP JUMP JUMPDEST DUP2 MLOAD PUSH8 0xFFFFFFFFFFFFFFFF DUP2 GT ISZERO PUSH2 0xBCB JUMPI PUSH2 0xBCB PUSH2 0x889 JUMP JUMPDEST PUSH2 0xBDF DUP2 PUSH2 0xBD9 DUP5 SLOAD PUSH2 0xB28 JUMP JUMPDEST DUP5 PUSH2 0xB62 JUMP JUMPDEST PUSH1 0x20 DUP1 PUSH1 0x1F DUP4 GT PUSH1 0x1 DUP2 EQ PUSH2 0xC14 JUMPI PUSH1 0x0 DUP5 ISZERO PUSH2 0xBFC JUMPI POP DUP6 DUP4 ADD MLOAD JUMPDEST PUSH1 0x0 NOT PUSH1 0x3 DUP7 SWAP1 SHL SHR NOT AND PUSH1 0x1 DUP6 SWAP1 SHL OR DUP6 SSTORE PUSH2 0xBA8 JUMP JUMPDEST PUSH1 0x0 DUP6 DUP2 MSTORE PUSH1 0x20 DUP2 KECCAK256 PUSH1 0x1F NOT DUP7 AND SWAP2 JUMPDEST DUP3 DUP2 LT ISZERO PUSH2 0xC43 JUMPI DUP9 DUP7 ADD MLOAD DUP3 SSTORE SWAP5 DUP5 ADD SWAP5 PUSH1 0x1 SWAP1 SWAP2 ADD SWAP1 DUP5 ADD PUSH2 0xC24 JUMP JUMPDEST POP DUP6 DUP3 LT ISZERO PUSH2 0xC61 JUMPI DUP8 DUP6 ADD MLOAD PUSH1 0x0 NOT PUSH1 0x3 DUP9 SWAP1 SHL PUSH1 0xF8 AND SHR NOT AND DUP2 SSTORE JUMPDEST POP POP POP POP POP PUSH1 0x1 SWAP1 DUP2 SHL ADD SWAP1 SSTORE POP JUMP JUMPDEST PUSH1 0x0 PUSH1 0x1 DUP3 ADD PUSH2 0xC91 JUMPI PUSH4 0x4E487B71 PUSH1 0xE0 SHL PUSH1 0x0 MSTORE PUSH1 0x11 PUSH1 0x4 MSTORE PUSH1 0x24 PUSH1 0x0 REVERT JUMPDEST POP PUSH1 0x1 ADD SWAP1 JUMP JUMPDEST PUSH4 0x4E487B71 PUSH1 0xE0 SHL PUSH1 0x0 MSTORE PUSH1 0x32 PUSH1 0x4 MSTORE PUSH1 0x24 PUSH1 0x0 REVERT INVALID LOG2 PUSH5 0x6970667358 0x22 SLT KECCAK256 DUP14 SHL 0xD0 0xE8 0xF9 DUP5 SWAP5 CALLDATALOAD 0xC7 0x2D MSTORE 0xB3 0xA6 0xFC INVALID DUP5 0x4E 0xE1 0xC8 PUSH29 0xB79BBECC2E45CE9D7333262064736F6C63430008110033000000000000 "
    },
    "gasEstimates": {
      "creation": {
        "codeDepositCost": "660000",
        "executionCost": "696",
        "totalCost": "660696"
      },
      "external": {
        "addCandidate(uint256,string)": "infinite",
        "createElection(string,uint256,uint256)": "infinite",
        "getCandidate(uint256,string)": "infinite",
        "getElection(uint256)": "infinite",
        "getElectionResults(uint256)": "infinite",
        "vote(uint256,string)": "infinite"
      }
    },
    "methodIdentifiers": {
      "addCandidate(uint256,string)": "1750a3d0",
      "createElection(string,uint256,uint256)": "f49a7a17",
      "getCandidate(uint256,string)": "0d448ca9",
      "getElection(uint256)": "9d710777",
      "getElectionResults(uint256)": "e8ededa6",
      "vote(uint256,string)": "24108475"
    }
  },
  "storageLayout": {
    "storage": [
      {
        "astId": 36,
        "contract": "VotingSystem.sol:VotingSystem",
        "label": "elections",
        "offset": 0,
        "slot": "0",
        "type": "t_mapping(t_uint256,t_struct(Election)31_storage)"
      },
      {
        "astId": 38,
        "contract": "VotingSystem.sol:VotingSystem",
        "label": "nextElectionId",
        "offset": 0,
        "slot": "1",
        "type": "t_uint256"
      }
    ],
    "types": {
      "t_address": {
        "encoding": "inplace",
        "label": "address",
        "numberOfBytes": "20"
      },
      "t_array(t_string_storage)dyn_storage": {
        "base": "t_string_storage",
        "encoding": "dynamic_array",
        "label": "string[]",
        "numberOfBytes": "32"
      },
      "t_bool": {
        "encoding": "inplace",
        "label": "bool",
        "numberOfBytes": "1"
      },
      "t_mapping(t_address,t_struct(Voter)6_storage)": {
        "encoding": "mapping",
        "key": "t_address",
        "label": "mapping(address => struct VotingSystem.Voter)",
        "numberOfBytes": "32",
        "value": "t_struct(Voter)6_storage"
      },
      "t_mapping(t_string_memory_ptr,t_struct(Candidate)11_storage)": {
        "encoding": "mapping",
        "key": "t_string_memory_ptr",
        "label": "mapping(string => struct VotingSystem.Candidate)",
        "numberOfBytes": "32",
        "value": "t_struct(Candidate)11_storage"
      },
      "t_mapping(t_uint256,t_struct(Election)31_storage)": {
        "encoding": "mapping",
        "key": "t_uint256",
        "label": "mapping(uint256 => struct VotingSystem.Election)",
        "numberOfBytes": "32",
        "value": "t_struct(Election)31_storage"
      },
      "t_string_memory_ptr": {
        "encoding": "bytes",
        "label": "string",
        "numberOfBytes": "32"
      },
      "t_string_storage": {
        "encoding": "bytes",
        "label": "string",
        "numberOfBytes": "32"
      },
      "t_struct(Candidate)11_storage": {
        "encoding": "inplace",
        "label": "struct VotingSystem.Candidate",
        "members": [
          {
            "astId": 8,
            "contract": "VotingSystem.sol:VotingSystem",
            "label": "name",
            "offset": 0,
            "slot": "0",
            "type": "t_string_storage"
          },
          {
            "astId": 10,
            "contract": "VotingSystem.sol:VotingSystem",
            "label": "voteCount",
            "offset": 0,
            "slot": "1",
            "type": "t_uint256"
          }
        ],
        "numberOfBytes": "64"
      },
      "t_struct(Election)31_storage": {
        "encoding": "inplace",
        "label": "struct VotingSystem.Election",
        "members": [
          {
            "astId": 13,
            "contract": "VotingSystem.sol:VotingSystem",
            "label": "name",
            "offset": 0,
            "slot": "0",
            "type": "t_string_storage"
          },
          {
            "astId": 15,
            "contract": "VotingSystem.sol:VotingSystem",
            "label": "startTime",
            "offset": 0,
            "slot": "1",
            "type": "t_uint256"
          },
          {
            "astId": 17,
            "contract": "VotingSystem.sol:VotingSystem",
            "label": "endTime",
            "offset": 0,
            "slot": "2",
            "type": "t_uint256"
          },
          {
            "astId": 22,
            "contract": "VotingSystem.sol:VotingSystem",
            "label": "voters",
            "offset": 0,
            "slot": "3",
            "type": "t_mapping(t_address,t_struct(Voter)6_storage)"
          },
          {
            "astId": 27,
            "contract": "VotingSystem.sol:VotingSystem",
            "label": "candidates",
            "offset": 0,
            "slot": "4",
            "type": "t_mapping(t_string_memory_ptr,t_struct(Candidate)11_storage)"
          },
          {
            "astId": 30,
            "contract": "VotingSystem.sol:VotingSystem",
            "label": "candidateNames",
            "offset": 0,
            "slot": "5",
            "type": "t_array(t_string_storage)dyn_storage"
          }
        ],
        "numberOfBytes": "192"
      },
      "t_struct(Voter)6_storage": {
        "encoding": "inplace",
        "label": "struct VotingSystem.Voter",
        "members": [
          {
            "astId": 3,
            "contract": "VotingSystem.sol:VotingSystem",
            "label": "voterAddress",
            "offset": 0,
            "slot": "0",
            "type": "t_address"
          },
          {
            "astId": 5,
            "contract": "VotingSystem.sol:VotingSystem",
            "label": "hasVoted",
            "offset": 20,
            "slot": "0",
            "type": "t_bool"
          }
        ],
        "numberOfBytes": "32"
      },
      "t_uint256": {
        "encoding": "inplace",
        "label": "uint256",
        "numberOfBytes": "32"
      }
    }
  },
  "userdoc": {
    "kind": "user",
    "methods": {},
    "version": 1
  }
}